:100000000C945D030C947A030C947A030C947A0399
:100010000C947A030C947A030C947A030C947A036C
:100020000C947A030C947A030C94EE070C94290830
:100030000C947A030C947A030C947A030C947A034C
:100040000C947A030C947A030C947A030C947A033C
:100050000C947A030C947A030C947A030C947A032C
:100060000C947A030C947A030C947A030C947A031C
:100070000C947A030C947A030C947A030C947A030C
:100080000C947A030C947A030C947A030C947A03FC
:100090000C947A030C947A030C947A030C947A03EC
:1000A0000C947A030C947A030C947A0383078007E8
:1000B0007D077A077707740771076E076B07680774
:1000C000650762075F075C07590756075307500724
:1000D0004D074A074707440741073E073B073807D4
:1000E000350732072F072C07290726072307200784
:1000F0001D071A071707140711070E070B07080734
:1001000005070207FF06FC06F906F606F306F006E9
:10011000ED06EA06E706E406E106DE06DB06D8069B
:10012000D506D206CF06CC06C906C606C306000110
:10013000000062011200020000740143000300008D
:10014000B7010401030904BB011402030904D1012E
:100150001603030904E9010C0001C11201803601F4
:1001600081361201000202000010C0167A0400015C
:100170000102030109024300020100C03209040028
:100180000001020201000524001001052401010103
:10019000042402060524060001070582031000401E
:1001A00009040100020A00000007050302400000E4
:1001B0000705840240000004030904140359006F7A
:1001C000007500720020004E0061006D00650000A7
:1001D00000160355005300420020005300650072D2
:1001E00000690061006C0000000C03310032003334
:1001F000003400350000006E616E00696E6600001C
:100200000000000000005F00000007000700147FEE
:10021000147F14242A7F2A12231308646236495556
:1002200022500005030000001C2241000041221C56
:100230000014083E081408083E080800503000006A
:100240000808080808006060000020100804023E4A
:100250005149453E00427F4000426151494621419B
:10026000454B311814127F1027454545393C4A4902
:10027000493001710905033649494936064949297A
:100280001E003636000000563600000814224100D9
:1002900014141414140041221408020151090632E6
:1002A0004979413E7E1111117E7F494949363E41CF
:1002B0004141227F4141221C7F494949417F09092F
:1002C00009013E4149497A7F0808087F00417F4182
:1002D000002040413F017F081422417F40404040C0
:1002E0007F020C027F7F0408107F3E4141413E7F28
:1002F000090909063E4151215E7F091929464649EF
:1003000049493101017F01013F4040403F1F2040EA
:10031000201F3F4038403F631408146307087008EB
:10032000076151494543007F414100020408102004
:100330000041417F0004020102044040404040006F
:100340000102040020545454787F4844443838440F
:10035000444420384444487F3854545418087E0993
:1003600001020C5252523E7F0804047800447D4042
:10037000002040443D007F1028440000417F4000A1
:100380007C041804787C0804047838444444387C9D
:1003900014141408081414187C7C08040408485425
:1003A000545420043F4440203C4040207C1C2040CA
:1003B000201C3C4030403C44281028440C505050F5
:1003C0003C4464544C44000836410000007F000067
:1003D00000413608001008081008784641467800A9
:1003E0000000000000005F00000007000700147F0D
:1003F000147F14242A7F2A12231308646236495575
:1004000022500005030000001C2241000041221C74
:100410000014083E081408083E0808005030000088
:100420000808080808006060000020100804023E68
:100430005149453E00427F400042615149462141B9
:10044000454B311814127F1027454545393C4A4920
:100450004930017109050336494949360649492998
:100460001E003636000000563600000814224100F7
:100470001414141414004122140802015109063204
:100480004979413E7E1111117E7F494949363E41ED
:100490004141227F4141221C7F494949417F09094D
:1004A00009013E4149497A7F0808087F00417F41A0
:1004B000002040413F017F081422417F40404040DE
:1004C0007F020C027F7F0408107F3E4141413E7F46
:1004D000090909063E4151215E7F0919294646490D
:1004E00049493101017F01013F4040403F1F204009
:1004F000201F3F4038403F6314081463070870080A
:10050000076151494543007F414100020408102022
:100510000041417F0004020102044040404040008D
:100520000102040020545454787F4844443838442D
:10053000444420384444487F3854545418087E09B1
:1005400001020C5252523E7F0804047800447D4060
:10055000002040443D007F1028440000417F4000BF
:100560007C041804787C0804047838444444387CBB
:1005700014141408081414187C7C08040408485443
:10058000545420043F4440203C4040207C1C2040E8
:10059000201C3C4030403C44281028440C50505013
:1005A0003C4464544C44000836410000007F000085
:1005B00000413608001008081008784641467800C7
:1005C000407A10F35A00A0724E18090010A5D4E822
:1005D0000000E87648170000E40B54020000CA9AB5
:1005E0003B000000E1F50500008096980000004007
:1005F000420F000000A0860100000010270000004C
:1006000000E803000000006400000000000A000091
:100610000000000100000000002C76D888DC674F45
:100620000823DFC1DFAE59E1B1B796E5E3E453C675
:100630003AE651997696E8E6C28426EB898C9B626D
:10064000ED407C6FFCEFBC9C9F40F2BAA56FA5F417
:1006500090055A2AF75C936B6CF9676DC11BFCE03F
:10066000E40D47FEF520E6B500D0ED902E03009492
:100670003577050080841E080000204E0A00000027
:10068000C80C333333330F986E12831141EF8D2131
:1006900014893BE65516CFFEE6DB18D1844B381B98
:1006A000F77C1D901DA4BBE424203284725E22815D
:1006B00000C9F124ECA1E53D270011241FBECFEFB6
:1006C000DAE0DEBFCDBF11E0A0E0B1E0EAE3F9E29D
:1006D00002C005900D92A23FB107D9F714E0A2EF36
:1006E000B1E001C01D92A030B107E1F70E94920471
:1006F0000C949B140C940000CF93DF93EC0180E0EA
:1007000091E06BE070E00E94750603C00E94130642
:10071000219688818823D1F78DE00E9413068AE014
:100720000E941306DF91CF910895CF93DF93EC01E0
:1007300003C00E941306219688818823D1F78DE09B
:100740000E9413068AE00E941306DF91CF9108955C
:10075000482F9B0190E001C09F5FF901E90FF11D57
:1007600080818823C9F785E0989FC001112462E049
:1007700070E00E94E411709561957F4F862F865D31
:1007800018160CF080E0642FA9010E94F70E08955E
:100790008FE30E94410F84B18C6084B90E94A4054C
:1007A0000895AF92BF92CF92DF92EF92FF920F9394
:1007B0001F93DF93CF930F92CDB7DEB7A82E162FDE
:1007C00063E00E94D811692F70E0882777FD80953B
:1007D000982F0E94C11020E030E040E05FE30E94CB
:1007E000C30F20E030E048EA52E40E94751120E097
:1007F00030E040E450E40E942B100E949310B62E8B
:100800008A2D63E00E94D81190E0AA2797FDA09559
:10081000BA2FBC01CD010E94C11020E030E040E0C1
:100820005FE30E94C30F20E030E040E452E40E9406
:10083000751120E030E040E450E40E942B100E944B
:100840009310962F4AEFF42EFB0C36E0C32ECB0C00
:100850002AEFD22ED60E86E0E82EE60E112311F4F2
:100860000F2D36C00F2D16C00F1541F00C1531F0AD
:100870001D1521F040E050E01E1511F441E050E05C
:10088000802F612F99830E94230D1F5F9981E116AC
:1008900058F70F5FC01610F01D2DF9CFEA2DF0E0CC
:1008A000EA50FE4F8081882311F448E501C044E2FC
:1008B00093508B2D8250692F0E94A60E0DC0802F61
:1008C000612F41E00E94230D1F5FE116C0F70F5F0B
:1008D000C01610F01D2DF9CF0F90CF91DF911F9111
:1008E0000F91FF90EF90DF90CF90BF90AF90089561
:1008F0000E94931269E070E00E94E41120E030E071
:1009000091E0F901EA50FE4F1082821709F49083BA
:10091000F901E150FE4F10822F5F3F4F2930310522
:1009200081F708957F928F929F92AF92BF92CF925C
:10093000DF92EF92FF920F931F93DF93CF93CDB788
:10094000DEB764970FB6F894DEBF0FBECDBF80E868
:100950008093610081E0809361000E94C80381E17F
:100960006CE071E00E94A80388E168E171E00E94F8
:10097000A8030E940D0F0E94BD058823E1F30E9489
:10098000BF078823C1F3EE24FF246E010894C11C25
:10099000D11C6AE9862E61E0962E7724739458EC78
:1009A000A52EB12C0E941B0D80E166E271E00E9431
:1009B000A80389E168E371E00E94A8030E940D0F7B
:1009C00086E291E00E94950388E491E00E949503FD
:1009D00000E010E00E94C0050F5F1F4F83379105B4
:1009E000C9F7E114F10421F4C8010E9498127801BA
:1009F0008EE591E062E070E00E9475060E94780446
:100A00000E941B0D10E0812F60E00E94D1031F5F48
:100A10001930C9F70E940D0F81E691E00E949503FD
:100A20000E94C0058133910519F400E010E02FC049
:100A30008233910519F401E010E029C08333910558
:100A400019F402E010E023C08433910519F403E0A7
:100A500010E01DC08533910519F404E010E017C0C3
:100A60008633910519F405E010E011C08733910534
:100A700019F406E010E00BC08833910519F407E083
:100A800010E005C0C99709F040C008E010E000D0B0
:100A900000D000D0EDB7FEB73196ADB7BEB7129615
:100AA000DC92CE92119793828282158304830E94F6
:100AB000BD13EDB7FEB736960FB6F894FEBF0FBE66
:100AC000EDBF8091E5019091E601892B19F0C601F7
:100AD0000E947C03F801E150FE4F8081813029F4AF
:100AE00084EB91E00E94950305C07082802F61E045
:100AF0000E94D1030A501E4FD8018C91813029F4F5
:100B00000E940D0F01E010E002C000E010E00E9422
:100B10000D0F012B09F484CF82ED91E00E94950323
:100B200020E044E038E085B1842785B985B183278A
:100B300085B984EC99E0F5013197F1F70197D9F780
:100B40002F5F2A3081F72ECF81E08093D70080EA93
:100B50008093D80082E189BD09B400FEFDCF80E911
:100B60008093D8001092E0001092F2011092F301ED
:100B70008CE08093E200789408958091F2010895CA
:100B80002FB7F8948091F201882369F083E0809375
:100B9000E9009BE68091E80085FD09C082FF03C063
:100BA0009093E800F7CF2FBF2FEF3FEF0CC090914D
:100BB000F1008091E80085FD03C08BE68093E8009A
:100BC0002FBF292F30E0C90108952FB7F8948091E5
:100BD000F201882311F490E010C083E08093E900D3
:100BE0009091F200992349F48091E80082FF05C0BA
:100BF00085FD03C08BE68093E8002FBF892F089501
:100C00008091F201882371F09FB7F89483E080937C
:100C1000E9002BE602C02093E8008091E80085FD02
:100C2000FACF9FBF0895482F8091F2018823D9F110
:100C30002FB7F89484E08093E9008091F501882330
:100C400041F08091E80085FD02C02FBF12C01092D4
:100C5000F5019091E400975E34E08091E80085FD15
:100C600013C02FBF8091E400891729F481E080939D
:100C7000F5018FEF08958091F2018823A1F02FB73D
:100C8000F8943093E900E9CF4093F1008091E800B7
:100C900085FD03C08AE38093E80085E08093F4013A
:100CA0002FBF80E008958FEF0895282F8091F201E3
:100CB000882351F09FB7F89484E08093E9008091F5
:100CC000E80085FD03C09FBF8FEF08952093F100DA
:100CD0008091E80085FD03C08AE38093E80085E009
:100CE0008093F4019FBF80E00895CF93DF93EC01E0
:100CF0008091F201882309F41CC13FB7F89484E085
:100D00008093E9008091F501882309F408C180915E
:100D1000E80085FD02C03FBF0CC11092F501FFC085
:100D20009091E400975E8091E80085FD13C03FBF7D
:100D30008091E400891721F481E08093F501F9C0E6
:100D40008091F201882309F4F4C03FB7F894B0937E
:100D5000E900E9CF8091F200242F281B822F90E038
:100D60006817790708F4262F822F90E081349105C7
:100D700008F0C6C08A5A9F4FFC01EE0FFF1F059076
:100D8000F491E02D099489918093F10089918093E9
:100D9000F10089918093F10089918093F10089910C
:100DA0008093F10089918093F10089918093F10003
:100DB00089918093F10089918093F10089918093CA
:100DC000F10089918093F10089918093F1008991DC
:100DD0008093F10089918093F10089918093F100D3
:100DE00089918093F10089918093F100899180939A
:100DF000F10089918093F10089918093F1008991AC
:100E00008093F10089918093F10089918093F100A2
:100E100089918093F10089918093F1008991809369
:100E2000F10089918093F10089918093F10089917B
:100E30008093F10089918093F10089918093F10072
:100E400089918093F10089918093F1008991809339
:100E5000F10089918093F10089918093F10089914B
:100E60008093F10089918093F10089918093F10042
:100E700089918093F10089918093F1008991809309
:100E8000F10089918093F10089918093F10089911B
:100E90008093F10089918093F10089918093F10012
:100EA00089918093F10089918093F10089918093D9
:100EB000F10089918093F10089918093F1008991EB
:100EC0008093F10089918093F10089918093F100E2
:100ED00089918093F10089918093F10089918093A9
:100EE000F10089918093F10089918093F1008991BB
:100EF0008093F10089918093F10089918093F100B2
:100F000089918093F1008091E80085FD02C05093A3
:100F1000E800621B7109A093F4013FBF04C0B4E074
:100F200040E45AE3A5E06115710509F0F9CE80E0CF
:100F300001C08FEFDF91CF9108959FB7F894809112
:100F4000F401882341F084E08093E9008AE38093F0
:100F5000E8001092F4019FBF08956091E70170913D
:100F6000E8018091E9019091EA0108958091EB01F7
:100F700008958091EC0108958091ED01089580918C
:100F8000F3010895282F9FB7F8948091F2018823E8
:100F900039F082E08093E9008091E80085FD03C08C
:100FA0009FBF8FEF089581EA8093F10080E28093E4
:100FB000F1001092F1001092F1001092F1001092E5
:100FC000F10081E08093F1001092F1002093F10094
:100FD0008AE38093E8009FBF80E008951F920F92FC
:100FE0000FB60F9211248F939F938091E10010927E
:100FF000E100982F83FF11C01092E90081E08093F7
:10100000EB001092EC0082E18093ED0088E0809389
:10101000F0001092F2011092F30192FF13C0809140
:10102000F201882379F08091F401882359F08150EE
:101030008093F401882331F484E08093E9008AE30B
:101040008093E8009F918F910F900FBE0F901F909B
:1010500018951F920F920FB60F9211240F931F93A2
:101060002F933F934F935F936F937F938F939F93B0
:10107000AF93BF93EF93FF931092E9008091E80044
:1010800083FF3CC14091F1003091F1008091F1006B
:10109000682F70E02091F100922F80E0682B792B6F
:1010A0008091F100A82FB0E02091F100922F80E014
:1010B000A82BB92B1091F1000091F10082EF8093E1
:1010C000E800363009F05AC025E331E0A901455067
:1010D0005040F9013797859194918617970701F54C
:1010E000FA01859194918A179B07D1F49A012E5F9A
:1010F0003F4FF901659174912E5F3F4FF901449183
:10110000212F30E0902F80E0282B392B2F3F310505
:1011100019F010F02FEF30E0241758F4422F09C0D7
:10112000295F3F4F495F5F4FF1E02F353F0789F659
:10113000E5C05EEF8091E800282F30E0C90185709E
:101140009070892BB9F322FDDCC0342F413108F0B7
:1011500030E1232FCB0106C0FC010196E491E0931E
:10116000F10021502223C1F7630F711D431B5093DF
:10117000E8004423F9F63031E9F2C3C0353061F4B8
:101180008EEF8093E8008091E80080FFFCCF862FEF
:1011900080688093E300B5C0393051F5442309F0ED
:1011A000ADC06093F2011092F3011092F4018EEF42
:1011B0008093E80088E591E021E02093E900FC01BC
:1011C0000196E491E093EB00EE2369F0AC014F5FF0
:1011D0005F4FFC0184918093EC00CA010196FA01F3
:1011E00034913093ED002F5F253039F78EE181C0C7
:1011F000383061F4403809F081C08091E80080FF08
:10120000FCCF8091F2018093F10050C0313289F41B
:10121000413A09F073C08091E80080FFFCCFE7EE0F
:10122000F1E081918093F10081E0EE3EF807C9F78B
:101230003DC03032A1F4413209F060C08091E80035
:1012400082FFFCCFE7EEF1E08091F100819381E035
:10125000EE3EF807C9F78BEF8093E80027C03232E3
:1012600051F4413209F04AC06093F3018091E800E3
:1012700080FFFCCF1BC03323E9F48091E80080FF9E
:10128000FCCF423811F080E00DC0A093E9008091BE
:10129000EB0090E025E0969587952A95E1F781701F
:1012A0001092E9008093F1001092F1008EEF80938C
:1012B000E80027C0313011F0333001F54230F1F44D
:1012C000672BE1F42A2F2F77822F81508430B0F4DE
:1012D0008EEF8093E8002093E900333079F089E1C4
:1012E0008093EB0081E090E002C0880F991F2A955F
:1012F000E2F78093EA001092EA0003C081E2809353
:10130000EB00FF91EF91BF91AF919F918F917F91F2
:101310006F915F914F913F912F911F910F910F907E
:101320000FBE0F901F901895A1E1B0E0EAE9F9E037
:101330000C94F7113C017F876E876A01FC011782CC
:101340001682838181FD03C06FEF7FEF6FC39E0123
:101350002F5F3F4F398B288BF3012381EE85FF856B
:1013600023FD859123FF8191FF87EE87882309F470
:101370005AC3853251F4EE85FF8523FD859123FF05
:101380008191FF87EE87853229F490E0B3010E94B6
:101390009113E2CF982F10E0882499241032B0F4F2
:1013A0009B3269F09C3228F4903251F0933271F400
:1013B0000BC09D3239F0903349F4116028C012609F
:1013C000146025C0186023C0106121C017FD2AC019
:1013D000892F80538A3078F416FF06C0FAE09F9E6A
:1013E000902C1124980E13C03AE0839E802C112477
:1013F000880E10620CC09E3221F416FD14C31064D6
:1014000006C09C3611F4106802C0983659F4EE8577
:10141000FF8523FD959123FF9191FF87EE87992307
:1014200009F0BCCF892F8554833020F4812F80614F
:10143000905E07C0892F8556833008F09FC1812FA9
:101440008F7E86FD02C076E0972E6FE3F62EF8229F
:10145000953619F4F0E4FF2A07C0963619F420E80F
:10146000F22A02C091109A94F7FE0AC03BE33915A4
:1014700018F45CE3B52E02C0B92CB39427E009C080
:1014800047E0491520F4BB2447E0942EF7CF292DDF
:10149000BB24C60104969D878C87F601608171810B
:1014A00082819381AE014F5F5F4F0B2D0E94A3128B
:1014B0006C010981202E332400FF04C003FD02C00B
:1014C0001DE209C0F1FE02C01BE205C0F2FC02C031
:1014D00010E001C010E2C1018C709070892BB9F14D
:1014E000112311F483E001C084E0881510F08824F2
:1014F0000AC0881AF3FC07C080E290E0B3010E94A2
:1015000091138A94C9F7112329F0812F90E0B30138
:101510000E94911323FE03C007EF11E00EC00BEFF2
:1015200011E00BC0E114F10409F0805290E0B30126
:101530000E9491130F5F1F4F05C0EF2CFF24F0E1B5
:10154000EF22FF24F8018491882361F714C1F7FE8C
:1015500012C0BC0C24FE04C08A81813309F4BA9401
:101560001B141CF0BB24B3942DC0F8E0FB1550F500
:1015700038E0B32E27C0F6FC25C0892D90E08C15ED
:101580009D054CF02CEFC2162FEFD20624F030E868
:10159000F32A01C09A94992049F0E2E0F0E0EC0FC0
:1015A000FD1FE90DF11D80818033A1F3F7FE0AC014
:1015B000B92CB394892D90E0C816D90614F099245B
:1015C00001C09C18F7FC03C025E030E009C01C14E2
:1015D0001D041CF021E030E003C096012F5F3F4F57
:1015E000112311F02F5F3F4F992029F0892D90E0B2
:1015F0000196280F391F882D90E02817390714F01D
:10160000882401C0821A4F2C5524C2018970907021
:10161000892B39F008C080E290E0B3010E94911359
:101620008A948820C1F7112329F0812F90E0B3011B
:101630000E94911343FE07C008C080E390E0B3010D
:101640000E9491138A948820C1F7F7FE46C0860154
:10165000D7FE02C000E010E076010894E11CF11C06
:10166000E01AF10A41E050E04C0F5D1FE40EF51E58
:1016700026014B185108892D90E0AA24BB24A81AF2
:10168000B90A5FEF0F3F150729F48EE290E0B3012E
:101690000E949113C016D10634F0401651061CF476
:1016A000F701808101C080E3015010400894E11CE3
:1016B000F11C0A151B052CF090E0B3010E94911358
:1016C000E0CF0C151D0539F49A81963318F4953343
:1016D00011F424FE81E390E04BC08A81813309F04C
:1016E0000F7E90E0B3010E9491139920A1F08EE249
:1016F00090E0B3010E94911312E0E1E0F0E0EC0F02
:10170000FD1FE10FF11D1F5F808190E0B3010E947A
:1017100091139A9491F744FC03C085E690E002C0CF
:1017200085E490E0B3010E949113D7FC05C0C11479
:10173000D10441F404FF06C0D094C194D108D394DD
:101740008DE201C08BE290E0B3010E94911380E32F
:1017500005C08F5F26EF3FEFC20ED31E3AE0C316DF
:10176000D104BCF790E0B3010E949113C601C0966A
:10177000B3010E949113CC84DD8452C1933631F0C1
:10178000933799F0933509F059C023C0F601808151
:1017900089835E010894A11CB11C22E030E0C20ED6
:1017A000D31E21E0E22EF12C12C0F601A080B18000
:1017B00016FD03C06FEF7FEF02C0692D70E022E0DD
:1017C00030E0C20ED31EC5010E9486137C011F7734
:1017D00013C0F601A080B18016FD03C06FEF7FEF4C
:1017E00002C0692D70E022E030E0C20ED31EC501B8
:1017F0000E947B137C01106813FF07C01BC080E2AE
:1018000090E0B3010E9491138A94882D90E0E8162D
:10181000F906A8F30FC0F50117FD859117FF819117
:101820005F0190E0B3010E94911381108A940894A3
:10183000E108F108E114F10471F7F2C0943611F0F7
:10184000993689F517FF08C0F60120813181428160
:10185000538184E090E00AC0F601808191819C016F
:10186000442737FD4095542F82E090E0C80ED91EE2
:101870009FE6F92EF12257FF09C05095409530950B
:1018800021953F4F4F4F5F4F90E8F92ACA01B901A8
:10189000AE014F5F5F4F2AE030E00E94E113E82E77
:1018A000E889EE1A41C0953721F41F7E2AE030E026
:1018B0001CC0197F9F3661F0903720F4983509F0ED
:1018C000B2C00FC0903739F0983709F0ACC004C0EF
:1018D00028E030E00AC0106114FD146020E130E01F
:1018E00004C014FD166020E132E017FF08C0F601C5
:1018F000608171818281938144E050E008C0F601EB
:1019000080819181BC0180E090E042E050E0C40E13
:10191000D51EAE014F5F5F4F0E94E113E82E58893C
:10192000E51A8FE7F82EF122F6FE0BC08EEFF822B3
:10193000E91438F4F4FE07C0F2FC05C09FEEF9226A
:1019400002C01E2D01C0192DF4FE0DC0FE01EE0DCA
:10195000F11D8081803319F4E9EEFE2208C01F5F7B
:10196000F2FE05C003C08F2D867809F01F5F0F2D92
:10197000F3FC14C0F0FE0FC0181510F09E2C0BC025
:101980009E2C980C911A182D06C080E290E0B301AD
:101990000E9491131F5F1815C0F304C0181510F4AE
:1019A000811A01C0882404FF0FC080E390E0B301D6
:1019B0000E94911302FF1DC001FD03C088E790E063
:1019C0000EC088E590E00BC0802F867891F001FF73
:1019D00002C08BE201C080E2F7FC8DE290E0B3012F
:1019E0000E94911306C080E390E0B3010E9491131E
:1019F0009A94E914C0F3EA94E1E0F0E0EC0FFD1FE3
:101A0000EE0DF11D808190E0B3010E949113EE2054
:101A100091F706C080E290E0B3010E9491138A948E
:101A20008820C1F799CCF30166817781CB0161965B
:101A3000E2E10C941312E8E0F2E0119284E0E0306D
:101A4000F807D9F70895843580F5603370F5262FAF
:101A5000269526952695677090E0442399F0E4E555
:101A60002E9FF0011124E80FF91FE85FFD4F81E080
:101A700090E002C0880F991F6A95E2F72081282B19
:101A800020830895E4E52E9FF0011124E80FF91F4B
:101A9000E85FFD4F81E090E002C0880F991F6A95D2
:101AA000E2F7809520812823208308952F923F928A
:101AB0004F925F926F927F928F929F92AF92BF925E
:101AC000CF92DF92EF92FF920F931F93DF93CF930A
:101AD000CDB7DEB72D970FB6F894DEBF0FBECDBFE2
:101AE000D82EC62E142F022F8417F9F4A62EBB244D
:101AF000E22EFF240EC08D2D6A2D41E00E94230DA1
:101B0000C01620F40894A11CB11C03C00894A108BD
:101B1000B108C01628F4EA14FB040CF4FEC0EBCFA5
:101B2000AE14BF040CF4F9C0E6CF282F30E06017E4
:101B3000F9F4C9015C01E42EFF240EC08A2D6C2D3E
:101B400041E00E94230DD11620F40894A11CB11C81
:101B500003C00894A108B108D11628F4EA14FB04C4
:101B60000CF4DBC0EBCFAE14BF040CF4D6C0E6CF50
:101B7000842F90E09A838983C9015C0169817A810D
:101B8000681B790B882777FD8095982F0E94C110DC
:101B90006F83788789879A87202E33244C2C55248D
:101BA000B10164197509882777FD8095982F0E94E7
:101BB000C1103B014C012F81388549855A850E940F
:101BC0002B106B837C838D839E8320E030E040E08C
:101BD00050E00E94711187FF0DC0C401B3019058FD
:101BE0002F81388549855A850E942B106B837C8311
:101BF0008D839E830F2EF0E0CF2EF0E0DF2EF0E0FD
:101C0000EF2EF0E0FF2EF02D70C0AB868A2D642DF4
:101C100041E00E94230DC701B6012B813C814D811B
:101C20005E810E94C30F31C08B85642D41E00E940C
:101C3000230D1D861C86C401B30120E030E040E086
:101C400050E00E947111181624F4E1E0F0E0FD87E5
:101C5000EC8700E010E0C401B30120E030E040E098
:101C600050E00E942710882314F401E010E08C85D6
:101C70009D85801B910B480E591EC701B60120E0BF
:101C800030E040E85FE30E94C20F6B017C0120E07E
:101C900030E040E05FE30E94711188239CF0C401B2
:101CA000B30120E030E040E050E00E9471111816CE
:101CB0002CF4241435040CF0B7CF04C042145304A0
:101CC0000CF0B2CF6F81788589859A8520E030E06D
:101CD00040E050E00E947111181624F40894A11CF1
:101CE000B11C03C00894A108B1086F81788589856B
:101CF0009A8520E030E040E050E00E947111181613
:101D000034F4E981FA81EA15FB053CF07ECF898144
:101D10009A81A816B9060CF078CF2D960FB6F894D4
:101D2000DEBF0FBECDBFCF91DF911F910F91FF900E
:101D3000EF90DF90CF90BF90AF909F908F907F906B
:101D40006F905F904F903F902F9008958F929F9249
:101D5000AF92BF92CF92DF92EF92FF920F931F93B9
:101D6000CF93DF93D82EC62E85E0489FA001112483
:101D70008A01015A1E4F91E0892E912C84E6A82EEB
:101D800081E0B82EA40EB51E1EC06C2D6C0FA401F0
:101D90000C2E02C0440F551F0A94E2F74E215F211A
:101DA0000C2E02C0559547950A94E2F78D2D0E949E
:101DB000230D2196C830D10541F70F5F1F4FD394F3
:101DC0000A151B0539F0C0E0D0E0F8018491E82E37
:101DD000FF24DBCFDF91CF911F910F91FF90EF9008
:101DE000DF90CF90BF90AF909F908F9008950F930A
:101DF0001F93CF93DF93182F062FEA0106C0812F80
:101E0000602F0E94A60E21961B5F48814423B9F7DC
:101E1000DF91CF911F910F910895CF93DF9380E0D1
:101E200060E00E94B50FC8E0D2E081E069910E94B5
:101E3000200F84E0C030D807C1F7DF91CF9108951B
:101E400095B18295880F807E9F7D982B95B95F987C
:101E500027E030E070E08F98CB01022E02C095950C
:101E600087950A94E2F780FF02C02E9A01C02E984F
:101E70008F9A215030408FEF2F3F380761F75F9ADC
:101E800008951F93182F579A249A259A269A879A6D
:101E90002C985F9A2C9A80E061E20E94200F1068D3
:101EA00080E0612F0E94200F80E064E00E94200FFC
:101EB00080E063E10E94200F80E06CE00E94200F30
:101EC00080E060E20E94200F80E06CE00E94200F22
:101ED00080E060E40E94200F80E060E80E94200F14
:101EE0001F910895CF93DF93C0E0D0E081E060E0E0
:101EF0000E94200F219681E0C83FD807B9F7DF91F3
:101F0000CF9108950F931F93CF93DF93082F81E014
:101F100060E00E94200F85E0089F80011124E80105
:101F2000C15CDC4F0B59104001521C4FFE01649103
:101F300081E00E94200F2196C017D107B9F781E0F8
:101F400060E00E94200FDF91CF911F910F910895C3
:101F5000CF93DF93EC0103C00E94820F219688810A
:101F60008823D1F7DF91CF9108951F93182F6064D4
:101F700080E00E94200F106880E0612F0E94200FF7
:101F80001F9108955058BB27AA270ED070C161D168
:101F900030F066D120F031F49F3F11F41EF456C1A9
:101FA0000EF4E095E7FB4CC1E92F72D180F3BA172C
:101FB000620773078407950718F071F49EF58AC1CC
:101FC0000EF4E0950B2EBA2FA02D0B01B901900154
:101FD0000C01CA01A0011124FF27591B99F0593F98
:101FE00050F4503E68F11A16F040A22F232F342FE0
:101FF0004427585FF3CF469537952795A795F0402E
:102000005395C9F77EF41F16BA0B620B730B840B42
:10201000BAF09150A1F0FF0FBB1F661F771F881FFA
:10202000C2F70EC0BA0F621F731F841F48F4879552
:1020300077956795B795F7959E3F08F0B3CF939541
:10204000880F08F09927EE0F979587950895D4D0BB
:1020500008F481E008950CD00AC102D140F0F9D013
:1020600030F021F45F3F19F0EBC0511134C1EEC0E4
:102070000FD198F39923C9F35523B1F3951B550B51
:10208000BB27AA2762177307840738F09F5F5F4F4B
:10209000220F331F441FAA1FA9F333D00E2E3AF08C
:1020A000E0E830D091505040E695001CCAF729D0A6
:1020B000FE2F27D0660F771F881FBB1F26173707F5
:1020C0004807AB07B0E809F0BB0B802DBF01FF2725
:1020D00093585F4F2AF09E3F510568F0B1C0FBC096
:1020E0005F3FECF3983EDCF3869577956795B7955F
:1020F000F7959F5FC9F7880F911D9695879597F97A
:102100000895E1E0660F771F881FBB1F62177307F2
:102110008407BA0720F0621B730B840BBA0BEE1F07
:1021200088F7E0950895BCD088F09F5790F0B92FBC
:102130009927B751A0F0D1F0660F771F881F991F1C
:102140001AF0BA95C9F712C0B13081F0C3D0B1E02E
:102150000895C0C0672F782F8827B85F39F0B93F3E
:10216000CCF3869577956795B395D9F73EF490951E
:102170008095709561957F4F8F4F9F4F0895E8949C
:1021800009C097FB3EF490958095709561957F4FBF
:102190008F4F9F4F9923A9F0F92F96E9BB2793956D
:1021A000F695879577956795B795F111F8CFFAF47D
:1021B000BB0F11F460FF1BC06F5F7F4F8F4F9F4FAE
:1021C00016C0882311F096E911C0772321F09EE80C
:1021D000872F762F05C0662371F096E8862F70E072
:1021E00060E02AF09A95660F771F881FDAF7880F4C
:1021F0009695879597F90895990F0008550FAA0BA2
:10220000E0E8FEEF16161706E807F907C0F0121609
:102210001306E407F50798F0621B730B840B950B0C
:1022200039F40A2661F0232B242B252B21F4089561
:102230000A2609F4A140A6958FEF811D811D0895FE
:1022400097F99F6780E870E060E008959FEF80EC69
:10225000089500240A94161617061806090608950C
:1022600000240A9412161306140605060895092E72
:102270000394000C11F4882352F0BB0F40F4BF2BE1
:1022800011F460FF04C06F5F7F4F8F4F9F4F089521
:1022900057FD9058440F551F59F05F3F71F0479517
:1022A000880F97FB991F61F09F3F79F087950895FC
:1022B000121613061406551FF2CF4695F1DF08C01B
:1022C000161617061806991FF1CF86957105610538
:1022D00008940895E894BB2766277727CB0197F9E0
:1022E00008958ADF08F48FEF08950BD0C0CFB1DFD7
:1022F00028F0B6DF18F0952309F0A2CFA7CF11245C
:10230000EACFC6DFA0F3959FD1F3950F50E0551F9C
:10231000629FF001729FBB27F00DB11D639FAA273A
:10232000F00DB11DAA1F649F6627B00DA11D661F89
:10233000829F2227B00DA11D621F739FB00DA11DAA
:10234000621F839FA00D611D221F749F3327A00D64
:10235000611D231F849F600D211D822F762F6A2F00
:1023600011249F5750408AF0E1F088234AF0EE0F85
:10237000FF1FBB1F661F771F881F91505040A9F792
:102380009E3F510570F05CCFA6CF5F3FECF3983EC7
:10239000DCF3869577956795B795F795E7959F5FF9
:1023A000C1F7FE2B880F911D9695879597F9089593
:1023B000991B79E004C0991F961708F0961B881F97
:1023C0007A95C9F78095089597FB092E07260AD0BC
:1023D00077FD04D043D006D000201AF470956195A3
:1023E0007F4F0895F6F7909581959F4F08952F920E
:1023F0003F924F925F926F927F928F929F92AF9295
:10240000BF92CF92DF92EF92FF920F931F93CF93E1
:10241000DF93CDB7DEB7CA1BDB0B0FB6F894DEBF78
:102420000FBECDBF09942A88398848885F846E849E
:102430007D848C849B84AA84B984C884DF80EE80E8
:10244000FD800C811B81AA81B981CE0FD11D0FB6F1
:10245000F894DEBF0FBECDBFED010895AA1BBB1BD4
:1024600051E107C0AA1FBB1FA617B70710F0A61B94
:10247000B70B881F991F5A95A9F780959095BC01B5
:10248000CD010895A0E0B0E0E8E4F2E10C94FF1182
:10249000EC01A880B980CA80DB80A114B104C1041A
:1024A000D10441F484E2A82E89EDB82E8BE5C82E24
:1024B00087E0D82EC601B5012DE133EF41E050E0B1
:1024C0000E945E1427EA31E440E050E00E943F148D
:1024D0007B018C01C601B5012DE133EF41E050E0F5
:1024E0000E945E14CA01B9012CEE34EF4FEF5FEF8A
:1024F0000E943F146E0D7F1D801F911F97FF04C027
:102500006150704080409048688379838A839B83C0
:102510009B013F77C901CDB7DEB7EAE00C941B12EF
:102520000E94421208958EEE91E00E944212089598
:10253000A0E0B0E08093EE019093EF01A093F00152
:10254000B093F1010895283008F027E03327DA012D
:10255000990F311D87FD916000966105710539F471
:1025600032602E5F3D9330E32A95E1F708959F3F57
:1025700030F080387105610509F03C5F3C5F3D93A8
:10258000913008F08068911DDF93CF931F930F93D4
:10259000FF92EF92192F987F9695E92F9695969531
:1025A000E90FFF27E75EF94F99273327EE24FF2431
:1025B000A701E70105900894079428F4360FE71E59
:1025C000F81E491F511D660F771F881F991F06941B
:1025D000A1F70590079428F4E70EF81E491F561F2F
:1025E000C11D770F881F991F661F0694A1F70590DC
:1025F000079428F4F80E491F561FC71FD11D880FD6
:10260000991F661F771F0694A1F70590079420F481
:10261000490F561FC71FD81F990F661F771F881FA6
:102620000694A9F784911095177041F0D695C79537
:1026300057954795F794E7941A95C1F7EFEBF5E0B6
:1026400068941590159135916591959105907FE26B
:102650007395E118F10A430B560BC90BD009C0F76B
:10266000E10CF11E431F561FC91FD01D7EF47033AD
:1026700011F48A95E6CFE894015030F0080F0AF47F
:102680000027021708F4202F2395022F7A3328F011
:1026900079E37D932A95E9F710C07D932A9589F611
:1026A000069497956795379517951794E118F10A51
:1026B000430B560BC90BD00998F023957E91739567
:1026C0007A3308F070E37C932013B8F77E91706141
:1026D0007D9330F0839571E37D9370E32A95E1F764
:1026E0001124EF90FF900F911F91CF91DF919927C7
:1026F00087FD90950895FC01059061507040011090
:10270000D8F7809590958E0F9F1F0895FC0161501A
:10271000704001900110D8F7809590958E0F9F1F03
:1027200008950F931F93CF93DF938C01EB018B815F
:1027300081FF1BC082FF0DC02E813F818C819D8156
:102740002817390764F4E881F9810193F983E88354
:1027500006C0E885F985802F0995892B31F48E8193
:102760009F8101969F838E8302C00FEF1FEFC801E8
:10277000DF91CF911F910F910895AEE0B0E0E3ECAF
:10278000F3E10C9405120D891E8986E08C831A836F
:1027900009838FEF9FE79E838D839E01275E3F4FC6
:1027A000CE0101966F89788DA9010E9494092F812D
:1027B0003885020F131FF80110822E96E4E00C9466
:1027C0002112FA01AA27283051F1203181F1E89431
:1027D0006F936E7F6E5F7F4F8F4F9F4FAF4FB1E014
:1027E0003ED0B4E03CD0670F781F891F9A1FA11D0F
:1027F000680F791F8A1F911DA11D6A0F711D811D10
:10280000911DA11D20D009F468943F912AE0269FD4
:1028100011243019305D3193DEF6CF010895462F33
:102820004770405D4193B3E00FD0C9F7F6CF462F14
:102830004F70405D4A3318F0495D31FD405241937D
:1028400002D0A9F7EACFB4E0A6959795879577953A
:102850006795BA95C9F700976105710508959B01C1
:10286000AC010A2E06945795479537952795BA954A
:10287000C9F7620F731F841F951FA01D0895629FE3
:10288000D001739FF001829FE00DF11D649FE00D68
:10289000F11D929FF00D839FF00D749FF00D659FC9
:1028A000F00D9927729FB00DE11DF91F639FB00DC8
:1028B000E11DF91FBD01CF011124089597FB092ED9
:1028C00005260ED057FD04D014D00AD0001C38F4D1
:1028D00050954095309521953F4F4F4F5F4F08954C
:1028E000F6F790958095709561957F4F8F4F9F4F2C
:1028F0000895A1E21A2EAA1BBB1BFD010DC0AA1F41
:10290000BB1FEE1FFF1FA217B307E407F50720F058
:10291000A21BB30BE40BF50B661F771F881F991FD3
:102920001A9469F760957095809590959B01AC011C
:0A293000BD01CF010895F894FFCF18
:10293A00202D205B44454255475D2000576169744C
:10294A00696E6720666F720074686520706C6179C1
:10295A0065722E2E2E002D2D2D204C55434B5920BD
:10296A00444950202D2D2D0027732720746F207382
:10297A00746172742E2E2E00507265737320277341
:10298A002720746F2073746172742E2E2E000D0A24
:10299A0000506C6561736520656E746572206120F4
:1029AA006E756D626572206265747765656E203139
:1029BA0020616E64203920746F2073656C656374BE
:1029CA00206120626F782E2E2E0055736572206862
:1029DA0061732073656C656374656420626F782027
:1029EA002325640020202D205468617420626F78AA
:1029FA0020697320616C7265616479206F70656EFD
:102A0A002100596F7520666F756E642074686520A1
:102A1A002424242100010000E10000000008010034
:022A2A000000AA
:00000001FF
