:100000000C946C030C9489030C9489030C9489035D
:100010000C9489030C9489030C9489030C94890330
:100020000C9489030C9489030C9463150C949E150D
:100030000C9489030C9489030C9489030C94890310
:100040000C9489030C9489030C9489030C94890300
:100050000C9489030C9489030C9489030C94E70E87
:100060000C9489030C9489030C9489030C948903E0
:100070000C9489030C9489030C9489030C948903D0
:100080000C9489030C9489030C9489030C948903C0
:100090000C9489030C9489030C9489030C948903B0
:1000A0000C9489030C9489030C948903F814F514B7
:1000B000F214EF14EC14E914E614E314E014DD1464
:1000C000DA14D714D414D114CE14CB14C814C51414
:1000D000C214BF14BC14B914B614B314B014AD14C4
:1000E000AA14A714A414A1149E149B149814951474
:1000F00092148F148C1489148614831480147D1424
:100100007A147714741471146E146B1468146514D3
:1001100062145F145C1459145614531450144D1483
:100120004A144714441441143E143B14381405A8CF
:100130004CCDB2D44EB93836A9020C50B99186884C
:10014000083CA6AAAA2ABE000000803F00010000C9
:100150008001120002000092014300030000D5015B
:100160000401030904D9011402030904EF01160371
:1001700003090407020C0001C11201803601813617
:100180001201000202000010C0167A0400010102F0
:10019000030109024300020100C03209040000010A
:1001A00002020100052400100105240101010424BC
:1001B0000206052406000107058203100040090419
:1001C0000100020A000000070503024000000705C5
:1001D000840240000004030904140359006F0075F1
:1001E00000720020004E0061006D006500000016E6
:1001F000035500530042002000530065007200695F
:100200000061006C0000000C033100320033003448
:1002100000350000006E616E00696E66000000002F
:10022000000000005F00000007000700147F147F3B
:1002300014242A7F2A122313086462364955225057
:100240000005030000001C2241000041221C001494
:10025000083E081408083E0808005030000008084E
:10026000080808006060000020100804023E5149A0
:10027000453E00427F400042615149462141454B85
:10028000311814127F1027454545393C4A494930F9
:1002900001710905033649494936064949291E00B5
:1002A00036360000005636000008142241001414AF
:1002B000141414004122140802015109063249792C
:1002C000413E7E1111117E7F494949363E414141EF
:1002D000227F4141221C7F494949417F0909090187
:1002E0003E4149497A7F0808087F00417F4100204C
:1002F00040413F017F081422417F404040407F023F
:100300000C027F7F0408107F3E4141413E7F090976
:1003100009063E4151215E7F09192946464949494E
:100320003101017F01013F4040403F1F2040201F1D
:100330003F4038403F6314081463070870080761A2
:1003400051494543007F414100020408102000410B
:10035000417F00040201020440404040400001028D
:10036000040020545454787F48444438384444446A
:1003700020384444487F3854545418087E090102F8
:100380000C5252523E7F0804047800447D40002005
:1003900040443D007F1028440000417F40007C0421
:1003A0001804787C0804047838444444387C1414D5
:1003B0001408081414187C7C080404084854545485
:1003C00020043F4440203C4040207C1C2040201C16
:1003D0003C4030403C44281028440C5050503C4491
:1003E00064544C44000836410000007F0000004186
:1003F00036080010080810087846414678000000CA
:10040000000000005F00000007000700147F147F59
:1004100014242A7F2A122313086462364955225075
:100420000005030000001C2241000041221C0014B2
:10043000083E081408083E0808005030000008086C
:10044000080808006060000020100804023E5149BE
:10045000453E00427F400042615149462141454BA3
:10046000311814127F1027454545393C4A49493017
:1004700001710905033649494936064949291E00D3
:1004800036360000005636000008142241001414CD
:10049000141414004122140802015109063249794A
:1004A000413E7E1111117E7F494949363E4141410D
:1004B000227F4141221C7F494949417F09090901A5
:1004C0003E4149497A7F0808087F00417F4100206A
:1004D00040413F017F081422417F404040407F025D
:1004E0000C027F7F0408107F3E4141413E7F090995
:1004F00009063E4151215E7F09192946464949496D
:100500003101017F01013F4040403F1F2040201F3B
:100510003F4038403F6314081463070870080761C0
:1005200051494543007F4141000204081020004129
:10053000417F0004020102044040404040000102AB
:10054000040020545454787F484444383844444488
:1005500020384444487F3854545418087E09010216
:100560000C5252523E7F0804047800447D40002023
:1005700040443D007F1028440000417F40007C043F
:100580001804787C0804047838444444387C1414F3
:100590001408081414187C7C0804040848545454A3
:1005A00020043F4440203C4040207C1C2040201C34
:1005B0003C4030403C44281028440C5050503C44AF
:1005C00064544C44000836410000007F00000041A4
:1005D0003608001008081008784641467800407A2E
:1005E00010F35A00A0724E18090010A5D4E80000BC
:1005F000E87648170000E40B54020000CA9A3B005A
:100600000000E1F505000080969800000040420FD0
:10061000000000A08601000000102700000000E894
:1006200003000000006400000000000A0000000059
:10063000000100000000002C76D888DC674F0823FA
:10064000DFC1DFAE59E1B1B796E5E3E453C63AE660
:1006500051997696E8E6C28426EB898C9B62ED4040
:100660007C6FFCEFBC9C9F40F2BAA56FA5F490058F
:100670005A2AF75C936B6CF9676DC11BFCE0E40DC3
:1006800047FEF520E6B500D0ED902E0300943577B7
:10069000050080841E080000204E0A000000C80CDF
:1006A000333333330F986E12831141EF8D21148948
:1006B0003BE65516CFFEE6DB18D1844B381BF77CA2
:1006C0001D901DA4BBE424203284725E228100C9E7
:1006D000F124ECA1E53D270011241FBECFEFDAE0A5
:1006E000DEBFCDBF12E0A0E0B1E0E6EDF7E402C06E
:1006F00005900D92AC3FB107D9F715E0ACEFB2E031
:1007000001C01D92AC36B107E1F70E94EB120C94C8
:10071000E9230C940000EF92FF920F931F93E09156
:100720000603F0910703EE0FFF1FEE0FFF1FE354C8
:10073000FD4FE080F18002811381C801B701209153
:100740003D0330913E0340913F03509140030E948E
:100750004A209B01AC016091350370913603809172
:100760003703909138030E94F11D60933503709315
:1007700036038093370390933803C801B701209163
:1007800041033091420340914303509144030E943E
:100790004A209B01AC016091390370913A0380912A
:1007A0003B0390913C030E94F11D609339037093C9
:1007B0003A0380933B0390933C03C801B701209117
:1007C00052033091530340915403509155030E94BA
:1007D0004A209B01AC0160914A0370914B038091C8
:1007E0004C0390914D030E94F11D60934A03709356
:1007F0004B0380934C0390934D03C801B7012091A4
:1008000056033091570340915803509159030E9469
:100810004A209B01AC0160914E0370914F0380917F
:100820005003909151030E94F11D60934E03709309
:100830004F038093500390935103C801B701209157
:100840006703309168034091690350916A030E94E5
:100850004A209B01AC0160915F037091600380911D
:100860006103909162030E94F11D60935F03709396
:1008700060038093610390936203C801B7012091E4
:100880006B0330916C0340916D0350916E030E9495
:100890004A209B01AC0160916303709164038091D5
:1008A0006503909166030E94F11D6093630370934A
:1008B000640380936503909366031F910F91FF90EB
:1008C000EF90089590917C008770987F892B80939A
:1008D0007C0080917A00806480937A0080917A0015
:1008E00086FDFCCF2091780030917900C9010895F0
:1008F00081E00E946204A0E0B0E0BC01CD0128E4E8
:1009000030E040E050E00E9432210E940A1F20E0C7
:1009100030EC4FE754E40E946F1E0E94D71E9B01EB
:10092000AC012E5F3F4FC9010895CF93DF93EC01D7
:1009300003C00E948813219688818823D1F78DE017
:100940000E9488138AE00E948813DF91CF91089556
:100950002F923F924F925F926F927F928F929F92CF
:10096000AF92BF92CF92DF92EF92FF920F931F93BD
:10097000DF93CF93CDB7DEB7A2970FB6F894DEBF63
:100980000FBECDBF2091FE023091FF02C901019739
:10099000029708F043C010E06091390370913A0368
:1009A00080913B0390913C0320E030E04CE352E423
:1009B0000E94462088230CF011E081E01827109354
:1009C000470310E060914E0370914F0380915003F4
:1009D0009091510320E030E04CE352E40E94462025
:1009E00088230CF011E081E0182710935C0310E0DD
:1009F0006091630370916403809165039091660335
:100A000020E030E04CE352E40E94462088230CF0C2
:100A100011E081E0182710937103D1C42330310510
:100A200009F0CDC460903503709036038090370391
:100A300090903803C401B30120E030E040E050E47E
:100A40000E94681E181654F4C401B30120E030E07F
:100A500046E952E40E94462088238CF080913D03B1
:100A600090913E03A0913F03B0914003B058809312
:100A70003D0390933E03A0933F03B09340038091C6
:100A8000390390913A03A0913B03B0913C038D87C9
:100A90009E87AF87B88BBC01CD0120E030E040E4F9
:100AA00051E40E94681E181664F46D857E858F855A
:100AB000988920E030E04CE152E40E9446208823EF
:100AC0008CF08091410390914203A0914303B09137
:100AD0004403B0588093410390934203A09343038F
:100AE000B093440380914A0390914B03A0914C032F
:100AF000B0914D038F8F98A3A9A3BAA3BC01CD01D8
:100B000020E030E040E050E40E94681E181664F4D3
:100B10006F8D78A189A19AA120E030E046E952E4E6
:100B20000E94462088238CF08091520390915303B9
:100B3000A0915403B0915503B05880935203909301
:100B40005303A0935403B093550380914E039091A7
:100B50004F03A0915003B091510389879A87AB87C7
:100B6000BC87BC01CD0120E030E040E451E40E94AC
:100B7000681E181664F469857A858B859C8520E04B
:100B800030E04CE152E40E94462088238CF08091B2
:100B9000560390915703A0915803B0915903B05850
:100BA0008093560390935703A0935803B09359032F
:100BB00020905F0330906003409061035090620387
:100BC000C201B10120E030E040E050E40E94681E24
:100BD000181654F4C201B10120E030E046E952E4B5
:100BE0000E94462088238CF08091670390916803CF
:100BF000A0916903B0916A03B05880936703909302
:100C00006803A0936903B0936A03A0906303B09054
:100C10006403C0906503D0906603C601B50120E06F
:100C200030E040E451E40E94681E181654F4C601F6
:100C3000B50120E030E04CE152E40E9446208823D8
:100C40008CF080916B0390916C03A0916D03B09137
:100C50006E03B05880936B0390936C03A0936D0365
:100C6000B0936E036F8D78A189A19AA120E030E046
:100C700040EE50E40E94F11D6B8F7C8F8D8F9E8F14
:100C8000C401B3012B8D3C8D4D8D5E8D0E94681E7D
:100C900088230CF03DC0C401B30120E030E040EEF9
:100CA00050E40E94F11D2F8D38A149A15AA10E9444
:100CB000462018166CF569857A858B859C8520E021
:100CC00030E040EE50E40E94F11D9B01AC016D85C7
:100CD0007E858F8598890E94681E8823CCF410E059
:100CE0006D857E858F85988920E030E040EE50E468
:100CF0000E94F11D29853A854B855C850E9446201E
:100D000018160CF011E081E01827E12EFF2402C034
:100D1000EE24FF24C201B10120E030E040EE50E4B7
:100D20000E94F11D6F8B788F898F9A8FC401B30158
:100D30002F89388D498D5A8D0E94681E8823CCF5E5
:100D4000C401B30120E030E040EE50E40E94F11D08
:100D5000A20191010E94462018165CF5C601B5015A
:100D600020E030E040EE50E40E94F11D9B01AC0118
:100D70006D857E858F8598890E94681E8823CCF4B6
:100D800010E06D857E858F85988920E030E040EE0B
:100D900050E40E94F11DA60195010E9446201816FC
:100DA0000CF011E081E01827A12FB0E0BA8BA98BDD
:100DB00002C01A8A198A6F8D78A189A19AA12F89F8
:100DC000388D498D5A8D0E94681E88239CF56B8D45
:100DD0007C8D8D8D9E8DA20191010E94462018165A
:100DE0004CF5C601B50120E030E040EE50E40E9431
:100DF000F11D9B01AC0169857A858B859C850E94DC
:100E0000681E8823BCF410E069857A858B859C85F3
:100E100020E030E040EE50E40E94F11DA601950173
:100E20000E94462018160CF011E081E01827212EB0
:100E3000332402C022243324EF2809F4E8C080912F
:100E4000000390910103892B21F080E091E00E9442
:100E500095044090350350903603609037037090AE
:100E60003803C301B20120E030E040E850E40E94C2
:100E7000F11D6B8B7C8B8D8B9E8BA0904E03B09065
:100E80004F03C0905003D0905103C601B50120E03C
:100E900030E040E450E40E94F11D9B01AC016B89FD
:100EA0007C898D899E890E94462018161CF488240E
:100EB000992427C099246091390370913A03809155
:100EC0003B0390913C0320E030E040E450E40E947A
:100ED000F11D7B018C01C601B50120E030E040E846
:100EE00050E40E94F11D9B01AC01C801B7010E94B2
:100EF000681E882314F49924939481E09826892C01
:100F00009924A0904A03B0904B03C0904C03D0901A
:100F10004D03C301B20120E030E040E450E40E9400
:100F2000F11D7B018C01C601B50120E030E040E8F5
:100F300050E40E94F11D9B01AC01C801B7010E9461
:100F4000681E88231CF480E090E018C010E0C60101
:100F5000B50120E030E040E450E40E94F11D9B0127
:100F6000AC016B897C898D899E890E944620181668
:100F70000CF411E081E01827812F90E0892819F105
:100F80008091410390914203A0914303B0914403A7
:100F9000B0588093410390934203A0934303B093CE
:100FA00044038091560390915703A0915803B09148
:100FB0005903B0588093560390935703A093580356
:100FC000B093590324C0892B11F180913D03909176
:100FD0003E03A0913F03B0914003B05880933D037E
:100FE00090933E03A0933F03B0934003809152033C
:100FF00090915303A0915403B0915503B05880933E
:10100000520390935303A0935403B0935503E9897B
:10101000FA89EF2B09F4E8C0809100039091010355
:10102000892B21F083E291E00E94950440903503E2
:10103000509036036090370370903803C301B201BB
:1010400020E030E040E850E40E94F11D6D837E8393
:101050008F839887A0906303B0906403C09065036A
:10106000D0906603C601B50120E030E040E450E4D2
:101070000E94F11D9B01AC016D817E818F8198855D
:101080000E94462018161CF48824992427C099240D
:101090006091390370913A0380913B0390913C0336
:1010A00020E030E040E450E40E94F11D7B018C011F
:1010B000C601B50120E030E040E850E40E94F11D97
:1010C0009B01AC01C801B7010E94681E882314F47B
:1010D0009924939481E09826892C9924A0905F0309
:1010E000B0906003C0906103D0906203C301B2016D
:1010F00020E030E040E450E40E94F11D7B018C01CF
:10110000C601B50120E030E040E850E40E94F11D46
:101110009B01AC01C801B7010E94681E88231CF422
:1011200080E090E018C010E0C601B50120E030E09A
:1011300040E450E40E94F11D9B01AC016D817E8171
:101140008F8198850E94462018160CF411E081E0EA
:101150001827812F90E0892819F1809141039091FF
:101160004203A0914303B0914403B05880934103DC
:1011700090934203A0934303B093440380916B0385
:1011800090916C03A0916D03B0916E03B058809361
:101190006B0390936C03A0936D03B0936E0324C014
:1011A000892B11F180913D0390913E03A0913F0363
:1011B000B0914003B05880933D0390933E03A093B9
:1011C0003F03B09340038091670390916803A0911F
:1011D0006903B0916A03B0588093670390936803E2
:1011E000A0936903B0936A03232809F4E8C08091AF
:1011F000000390910103892B21F085E491E00E9486
:10120000950440904A0350904B0360904C037090BB
:101210004D03C301B20120E030E040E850E40E94F9
:10122000F11D69837A838B839C83A0906303B090C4
:101230006403C0906503D0906603C601B50120E049
:1012400030E040E450E40E94F11D9B01AC01698153
:101250007A818B819C810E94462018161CF4882478
:10126000992427C0992460914E0370914F03809177
:1012700050039091510320E030E040E450E40E949C
:10128000F11D7B018C01C601B50120E030E040E892
:1012900050E40E94F11D9B01AC01C801B7010E94FE
:1012A000681E882314F49924939481E09826892C4D
:1012B0009924A0905F03B0906003C0906103D09028
:1012C0006203C301B20120E030E040E450E40E9438
:1012D000F11D7B018C01C601B50120E030E040E842
:1012E00050E40E94F11D9B01AC01C801B7010E94AE
:1012F000681E88231CF480E090E018C010E0C6014E
:10130000B50120E030E040E450E40E94F11D9B0173
:10131000AC0169817A818B819C810E9446201816DC
:101320000CF411E081E01827812F90E0892819F151
:101330008091560390915703A0915803B09159039F
:10134000B0588093560390935703A0935803B093DB
:10135000590380916B0390916C03A0916D03B09140
:101360006E03B05880936B0390936C03A0936D034E
:10137000B0936E0324C0892B11F180915203909198
:101380005303A0915403B0915503B0588093520376
:1013900090935303A0935403B09355038091670334
:1013A00090916803A0916903B0916A03B05880934B
:1013B000670390936803A0936903B0936A03A296AE
:1013C0000FB6F894DEBF0FBECDBFCF91DF911F9156
:1013D0000F91FF90EF90DF90CF90BF90AF909F90D4
:1013E0008F907F906F905F904F903F902F900895D7
:1013F000482F9B0190E001C09F5FF901E90FF11DAB
:1014000080818823C9F785E0989FC001112462E09C
:1014100070E00E945121709561957F4F862F865D07
:1014200018160CF080E0642FA9010E946C1C08952E
:101430000E94901A8AE068E671E00E94F8090E9412
:10144000821C08956F927F928F929F92AF92BF926B
:10145000CF92DF92EF92FF920F931F93CF93DF9380
:10146000EC010F2EF0E0AF2EF0E0BF2EF8E1CF2E12
:10147000F2E4DF2EF02D0F2EF0E06F2EF0E07F2E45
:10148000F8E28F2EF2E49F2EF02D80911E03882328
:1014900009F0E4C0C130D10549F460920C037092A8
:1014A0000D0380920E0390920F0315C0C230D10538
:1014B000D9F40E947804AA2797FDA095BA2FBC0101
:1014C000CD010E940A1F60930C0370930D0380935B
:1014D0000E0390930F03A0921003B0921103C092D9
:1014E0001203D092130331C0C330D10571F50E94AD
:1014F000002268E470E00E9451210296AA2797FD1D
:10150000A095BA2FBC01CD010E940A1F60930C0365
:1015100070930D0380930E0390930F030E9400229B
:101520006AE170E00E9451210C96AA2797FDA095D0
:10153000BA2FBC01CD010E940A1F60931003709363
:1015400011038093120390931303E0900C03F09027
:101550000D0300910E0310910F03C801B7012091F4
:1015600035033091360340913703509138030E9480
:10157000F01D0E94D71E645F7F4F6931710538F1FD
:10158000C801B70120914A0330914B0340914C03AD
:1015900050914D030E94F01D0E94D71E645F7F4F43
:1015A00069317105A0F0C801B70120915F03309146
:1015B000600340916103509162030E94F01D0E94FC
:1015C000D71E645F7F4F6931710508F044C0E09019
:1015D0001003F09011030091120310911303C8013E
:1015E000B7012091390330913A0340913B03509168
:1015F0003C030E94F01D0E94D71E645F7F4F69313B
:10160000710508F442CFC801B70120914E03309113
:101610004F0340915003509151030E94F01D0E94CE
:10162000D71E645F7F4F6931710508F42ECFC80162
:10163000B701209163033091640340916503509199
:1016400066030E94F01D0E94D71E645F7F4F6931C0
:10165000710508F41ACF81E080931E03DF91CF91CA
:101660001F910F91FF90EF90DF90CF90BF90AF90C0
:101670009F908F907F906F9008956F927F928F923E
:101680009F92AF92BF92CF92DF92EF92FF920F9311
:101690001F93CF93DF93EC0180914703882309F0D8
:1016A0002AC10E94002268E470E00E945121029643
:1016B000AA2797FDA095BA2FBC01CD010E940A1F51
:1016C0006093350370933603809337039093380308
:1016D000C330D10559F00F2EF0E0EF2EF0E0FF2ED1
:1016E000F0E40F2FF1E41F2FF02D11C00E94002213
:1016F0006AE170E00E9451210C96AA2797FDA095FF
:10170000BA2FBC01CD010E940A1F7B018C01E0921F
:101710003903F0923A0300933B0310933C03A090EB
:101720003503B0903603C0903703D0903803C6011C
:10173000B50120914A0330914B0340914C035091E5
:101740004D030E94F01D0E94D71E645F7F4F6931D8
:101750007105A0F4C801B70120914E0330914F03E9
:1017600040915003509151030E94F01D0E94D71EDA
:10177000645F7F4F6931710508F44CC0C601B50143
:1017800020915F03309160034091610350916203A7
:101790000E94F01D0E94D71E645F7F4F6931710562
:1017A00098F4C801B701209163033091640340911C
:1017B0006503509166030E94F01D0E94D71E645F6E
:1017C0007F4F6931710530F1C601B50120910C03DD
:1017D00030910D0340910E0350910F030E94F01DB4
:1017E0000E94D71E645F7F4F69317105B8F4C8014C
:1017F000B7012091100330911103409112035091D1
:1018000013030E94F01D0E94D71E645F7F4F693151
:10181000710520F4CE010E943D0B03C081E080934E
:101820004703C330D10509F066C00E94002268E674
:1018300071E00E945121AA2797FDA095BA2FBC0103
:10184000CD010E940A1F0E94AD2060933D0370935A
:101850003E0380933F03909340030E94002268E67A
:1018600071E00E945121AA2797FDA095BA2FBC01D3
:10187000CD010E940A1F0E946C1E3B014C01A090EA
:101880003D03B0903E03C0903F03D0904003C6019B
:10189000B501A60195010E944A207B018C01C4017B
:1018A000B301A40193010E944A209B01AC01C8012D
:1018B000B7010E94F11D0E94B7207B018C01C60177
:1018C000B501A80197010E946F1E60933D037093BC
:1018D0003E0380933F0390934003C401B301A801EA
:1018E00097010E946F1E609341037093420380939F
:1018F00043039093440380915C03882309F02AC139
:101900000E94002268E470E00E9451210296AA27FA
:1019100097FDA095BA2FBC01CD010E940A1F6093CC
:101920004A0370934B0380934C0390934D03C33051
:10193000D10559F00F2EF0E0EF2EF0E0FF2EF0E48D
:101940000F2FF1E41F2FF02D11C00E9400226AE139
:1019500070E00E9451210C96AA2797FDA095BA2FFE
:10196000BC01CD010E940A1F7B018C01E0924E0355
:10197000F0924F030093500310935103A0904A0339
:10198000B0904B03C0904C03D0904D03C601B501FD
:10199000209135033091360340913703509138033D
:1019A0000E94F01D0E94D71E645F7F4F6931710550
:1019B000A0F4C801B7012091390330913A03409156
:1019C0003B0350913C030E94F01D0E94D71E645FB0
:1019D0007F4F6931710508F44CC0C601B5012091F3
:1019E0005F033091600340916103509162030E9454
:1019F000F01D0E94D71E645F7F4F6931710598F416
:101A0000C801B701209163033091640340916503DD
:101A1000509166030E94F01D0E94D71E645F7F4FA5
:101A20006931710530F1C601B50120910C03309187
:101A30000D0340910E0350910F030E94F01D0E9470
:101A4000D71E645F7F4F69317105B8F4C801B701D3
:101A50002091100330911103409112035091130310
:101A60000E94F01D0E94D71E645F7F4F693171058F
:101A700020F4CE010E943D0B03C081E080935C0303
:101A8000C330D10509F066C00E94002268E671E00B
:101A90000E945121AA2797FDA095BA2FBC01CD0124
:101AA0000E940A1F0E94AD2060935203709353035B
:101AB00080935403909355030E94002268E671E0DE
:101AC0000E945121AA2797FDA095BA2FBC01CD01F4
:101AD0000E940A1F0E946C1E3B014C01A090520301
:101AE000B0905303C0905403D0905503C601B50184
:101AF000A60195010E944A207B018C01C401B3011B
:101B0000A40193010E944A209B01AC01C801B701C6
:101B10000E94F11D0E94B7207B018C01C601B50116
:101B2000A80197010E946F1E6093520370935303A4
:101B30008093540390935503C401B301A801970106
:101B40000E946F1E6093560370935703809358034F
:101B50009093590380917103882309F029C10E9451
:101B6000002268E470E00E9451210296AA2797FDA6
:101B7000A095BA2FBC01CD010E940A1F60935F039C
:101B8000709360038093610390936203C330D10527
:101B900059F00F2EF0E0EF2EF0E0FF2EF0E40F2FC3
:101BA000F1E41F2FF02D11C00E9400226AE170E0C5
:101BB0000E9451210C96AA2797FDA095BA2FBC012F
:101BC000CD010E940A1F7B018C01E0926303F09219
:101BD00064030093650310936603A0905F03B090C5
:101BE0006003C0906103D0906203C601B5012091EB
:101BF00035033091360340913703509138030E94EA
:101C0000F01D0E94D71E645F7F4F69317105A0F4FB
:101C1000C801B7012091390330913A0340913B0349
:101C200050913C030E94F01D0E94D71E645F7F4FBD
:101C30006931710508F44CC0C601B50120914A0311
:101C400030914B0340914C0350914D030E94F01D85
:101C50000E94D71E645F7F4F6931710598F4C801F7
:101C6000B70120914E0330914F03409150035091A2
:101C700051030E94F01D0E94D71E645F7F4F69319F
:101C8000710530F1C601B50120910C0330910D03AF
:101C900040910E0350910F030E94F01D0E94D71E29
:101CA000645F7F4F69317105B8F4C801B7012091B5
:101CB00010033091110340911203509113030E94BD
:101CC000F01D0E94D71E645F7F4F6931710520F4BB
:101CD000CE010E943D0B03C081E0809371032397E6
:101CE00009F066C00E94002268E671E00E9451215E
:101CF000AA2797FDA095BA2FBC01CD010E940A1F0B
:101D00000E94AD206093670370936803809369031A
:101D100090936A030E94002268E671E00E945121BC
:101D2000AA2797FDA095BA2FBC01CD010E940A1FDA
:101D30000E946C1E3B014C01A0906703B0906803A9
:101D4000C0906903D0906A03C601B501A601950150
:101D50000E944A207B018C01C401B301A4019301BC
:101D60000E944A209B01AC01C801B7010E94F11DED
:101D70000E94B7207B018C01C601B501A801970123
:101D80000E946F1E609367037093680380936903DA
:101D900090936A03C401B301A80197010E946F1ECA
:101DA00060936B0370936C0380936D0390936E0349
:101DB000DF91CF911F910F91FF90EF90DF90CF9027
:101DC000BF90AF909F908F907F906F9008951F92DB
:101DD0000F920FB60F921124CF92DF92EF92FF92E3
:101DE0000F931F932F933F934F935F936F937F9323
:101DF0008F939F93AF93BF93EF93FF938091FE02D6
:101E00009091FF028130910509F053C08FB1829506
:101E10008695877080FF26C0E0900C03F0900D033C
:101E200000910E0310910F03C801B70120E030E0CC
:101E300044E952E40E94681E8823A4F4C801B70153
:101E4000209114033091150340911603509117030C
:101E50000E94F11D60930C0370930D0380930E0399
:101E600090930F038FB1829586958695837080FF3E
:101E70009AC0E0900C03F0900D0300910E031091B6
:101E80000F03C801B70120E030E040E050E40E94B9
:101E9000462018160CF087C0C801B7012091140322
:101EA0003091150340911603509117030E94F01DC5
:101EB00072C08230910559F40E947804AA2797FDD8
:101EC000A095BA2FBC01CD010E940A1F64C00397E0
:101ED00009F069C00E9435138C01C0901003D090A6
:101EE0001103E0901203F09013038737910561F41A
:101EF0008091180390911903A0911A03B0911B03CC
:101F00009C01AD01505810C08337910529F020E0A5
:101F100030E040E050E008C02091180330911903F0
:101F200040911A0350911B03C701B6010E94F11D95
:101F30006093100370931103809312039093130323
:101F4000C0900C03D0900D03E0900E03F0900F03AF
:101F50000136110561F48091140390911503A0914D
:101F60001603B09117039C01AD01505810C0043600
:101F7000110529F020E030E040E050E008C0209159
:101F80001403309115034091160350911703C701B4
:101F9000B6010E94F11D60930C0370930D038093B2
:101FA0000E0390930F038091040390910503019613
:101FB00090930503809304034597DCF020911F0361
:101FC0003091200381EE92E0AC01485F5F4F28170B
:101FD000390711F4CA0105C0295E324011F080E0D2
:101FE00090E09093200380931F03109205031092BA
:101FF000040389B1869580FF0CC0109247031092AC
:102000005C03109271038091FE029091FF020E9486
:102010003D0B83B1869580FF11C08091060390919E
:1020200007038230910529F41092070310920603EA
:1020300005C0019690930703809306031F9B09C078
:102040008091FC029091FD0202969093FD02809394
:10205000FC02489B09C08091BB029091BC02019791
:102060009093BC028093BB02FF91EF91BF91AF911F
:102070009F918F917F916F915F914F913F912F91A0
:102080001F910F91FF90EF90DF90CF900F900FBEB8
:102090000F901F901895CF92DF92EF92FF920F93BF
:1020A0001F937B016A0100D000D000D0EDB7FEB7CE
:1020B000319601E213E0ADB7BEB712961C930E93B2
:1020C00011972AE731E033832283958384830E942A
:1020D0002A238DB79EB706960FB6F8949EBF0FBE03
:1020E0008DBF83E062E0A8010E946C1C84E160E087
:1020F00044E12AE00E94CB1A00D000D000D0EDB716
:10210000FEB73196ADB7BEB712961C930E931197DA
:102110008FE791E093838283F582E4820E942A23F1
:102120008DB79EB706960FB6F8949EBF0FBE8DBFB3
:1021300087E162E0A8010E946C1C8DE260E04DE244
:102140002AE00E94CB1A00D000D000D0EDB7FEB735
:102150003196ADB7BEB712961C930E93119786E8D1
:1021600091E093838283D582C4820E942A238DB713
:102170009EB706960FB6F8949EBF0FBE8DBF84E340
:1021800062E0A8010E946C1C80E06AE043E52AE05E
:102190000E94CB1A1F910F91FF90EF90DF90CF908C
:1021A000089580E060E043E520E00E94CB1A83E5DB
:1021B00060E043E52FE20E94CB1A83E56FE240E046
:1021C0002FE20E94CB1A80E06FE240E020E00E9404
:1021D000CB1A08958F929F92AF92BF92CF92EF92B7
:1021E0000F931F934C0183E090E09093BC02809387
:1021F000BB021092FD021092FC02809102039091AA
:1022000003030E9405228CE093E040E050E060E090
:1022100070E08A019B01F8E0EF2EE8E0CE2EB1EEEF
:10222000AB2EB2E0BB2E0E94371D85E393E040E069
:1022300050E060E070E08A019B01A9ECAA2EA2E0C8
:10224000BA2E0E94371D8AE493E040E050E060E03F
:1022500070E08A019B01F1EDAF2EF2E0BF2E0E94EB
:10226000371D8FE593E040E050E060E070E08A01C8
:102270009B01E9EDAE2EE2E0BE2E0E94371D80E00C
:1022800090E0A0E0BFE38093140390931503A09324
:102290001603B09317032DEC3CEC4CE45EE3209363
:1022A00018033093190340931A0350931B0380E0E3
:1022B00090E0A0E0B0E080933D0390933E03A093B4
:1022C0003F03B09340032093410330934203409374
:1022D0004303509344038093520390935303A0937A
:1022E0005403B09355032093560330935703409300
:1022F0005803509359038093670390936803A09306
:102300006903B0936A0320936B0330936C0340938B
:102310006D0350936E0310921E03109247031092A8
:102320005C0310927103C4010E94220AC4010E943E
:102330003D0B1F910F91EF90CF90BF90AF909F906A
:102340008F900895CF93DF93C1E0D0E049C00E9401
:10235000901A80E06DE871E00E94F809C130D10563
:1023600031F48AE06DE971E00E94F8090EC08AE05C
:1023700069EA71E00E94F809C230D10531F484E1C4
:1023800061EB71E00E94F80910C084E16DEB71E02F
:102390000E94F809C330D10541F48EE165EC71E08B
:1023A0000E94F80980E090E005C08EE161ED71E0E7
:1023B000F7CF01967D99FDCF892B39F0C330D10538
:1023C00019F4C1E0D0E001C021960E94821C8091E6
:1023D00002039091030301969093030380930203F9
:1023E0007E9BB5CFC330D105F1F40E94901A8FE0E7
:1023F00069ED71E00E94F80989E168EE71E00E94E0
:10240000F8090E94821C0E9432138823E1F30E9483
:1024100034158823C1F38BEF91E00E9495048CE181
:1024200092E00E949504CE01DF91CF9108950E9421
:10243000A2119093FF028093FE020E94EA100E9474
:10244000831208958091BB029091BC021816190660
:1024500054F18FE064E772E00E94F80989E16BE7CC
:1024600072E00E94F8090E94821C80910003909102
:102470000103892B51F084EC99E028EC30E0F9015C
:102480003197F1F70197D9F709C080E395E728EC78
:1024900030E0F9013197F1F70197D9F70E94901ACE
:1024A0000E94171208958091FC029091FD024497BA
:1024B0004CF18FE065E872E00E94F8098EE164E972
:1024C00072E00E94F8090E94821C809100039091A2
:1024D0000103892B51F084EC99E028EC30E0F901FC
:1024E0003197F1F70197D9F709C080E395E728EC18
:1024F00030E0F9013197F1F70197D9F70E94901A6E
:102500000E9417120895CF93DF93C8ECD0E00E9489
:10251000901A0E9422120E948B030E94A8048091AC
:10252000FE029091FF020E94220A8091FE02909189
:10253000FF020E943D0B8CE093E00E945F1D85E34B
:1025400093E00E945F1D8AE493E00E945F1D8FE587
:1025500093E00E945F1D0E94D1106091FC02709177
:10256000FD024091FE025091FF028091BB029091CA
:10257000BC020E944B100E94821C84EF91E0FE017D
:102580003197F1F70197D9F7C2CF1F93E1E6F0E059
:1025900080E8808311E010838FE30E94B61C84B131
:1025A0008D7784B98AB18C7F8AB980B38F7980BBEB
:1025B00084B18C6084B980E480937C0087E8809348
:1025C0007A0085B5856085BD10936E0078940E9471
:1025D00019131F9108950E94C5128FE064EA72E0FA
:1025E0000E94F80989E162EB72E00E94F8090E94FA
:1025F000821C8091000390910103892B51F084EC9F
:1026000099E028EC30E0F9013197F1F70197D9F71B
:1026100009C080E395E728EC30E0F9013197F1F744
:102620000197D9F70E94901A0E94171280E090E05B
:10263000089581E08093D70080EA8093D80082E1FA
:1026400089BD09B400FEFDCF80E98093D8001092C7
:10265000E00010920803109209038CE08093E200DE
:10266000789408958091080308952FB7F894809185
:102670000803882369F083E08093E9009BE680915A
:10268000E80085FD09C082FF03C09093E800F7CF02
:102690002FBF2FEF3FEF0CC09091F1008091E80029
:1026A00085FD03C08BE68093E8002FBF292F30E023
:1026B000C90108952FB7F89480910803882311F475
:1026C00090E010C083E08093E9009091F20099239C
:1026D00049F48091E80082FF05C085FD03C08BE6C8
:1026E0008093E8002FBF892F0895809108038823E5
:1026F00071F09FB7F89483E08093E9002BE602C065
:102700002093E8008091E80085FDFACF9FBF0895EF
:10271000482F809108038823D9F12FB7F89484E0DB
:102720008093E90080910B03882341F08091E800B9
:1027300085FD02C02FBF12C010920B039091E400E0
:10274000975E34E08091E80085FD13C02FBF809133
:10275000E400891729F481E080930B038FEF08953B
:10276000809108038823A1F02FB7F8943093E900F3
:10277000E9CF4093F1008091E80085FD03C08AE332
:102780008093E80085E080930A032FBF80E00895DE
:102790008FEF0895282F80910803882351F09FB769
:1027A000F89484E08093E9008091E80085FD03C0FF
:1027B0009FBF8FEF08952093F1008091E80085FD81
:1027C00003C08AE38093E80085E080930A039FBFFB
:1027D00080E00895CF93DF93EC0180910803882374
:1027E00009F41CC13FB7F89484E08093E90080911C
:1027F0000B03882309F408C18091E80085FD02C01D
:102800003FBF0CC110920B03FFC09091E400975E94
:102810008091E80085FD13C03FBF8091E4008917D7
:1028200021F481E080930B03F9C080910803882391
:1028300009F4F4C03FB7F894B093E900E9CF809170
:10284000F200242F281B822F90E06817790708F4E4
:10285000262F822F90E08134910508F0C6C08A5A55
:102860009F4FFC01EE0FFF1F0590F491E02D09949E
:1028700089918093F10089918093F10089918093EF
:10288000F10089918093F10089918093F100899101
:102890008093F10089918093F10089918093F100F8
:1028A00089918093F10089918093F10089918093BF
:1028B000F10089918093F10089918093F1008991D1
:1028C0008093F10089918093F10089918093F100C8
:1028D00089918093F10089918093F100899180938F
:1028E000F10089918093F10089918093F1008991A1
:1028F0008093F10089918093F10089918093F10098
:1029000089918093F10089918093F100899180935E
:10291000F10089918093F10089918093F100899170
:102920008093F10089918093F10089918093F10067
:1029300089918093F10089918093F100899180932E
:10294000F10089918093F10089918093F100899140
:102950008093F10089918093F10089918093F10037
:1029600089918093F10089918093F10089918093FE
:10297000F10089918093F10089918093F100899110
:102980008093F10089918093F10089918093F10007
:1029900089918093F10089918093F10089918093CE
:1029A000F10089918093F10089918093F1008991E0
:1029B0008093F10089918093F10089918093F100D7
:1029C00089918093F10089918093F100899180939E
:1029D000F10089918093F10089918093F1008991B0
:1029E0008093F10089918093F10089918093F100A7
:1029F0008091E80085FD02C05093E800621B7109D8
:102A0000A0930A033FBF04C0B4E040E45AE3A5E04A
:102A10006115710509F0F9CE80E001C08FEFDF91FB
:102A2000CF9108959FB7F89480910A03882341F0CD
:102A300084E08093E9008AE38093E80010920A031F
:102A40009FBF08956091F1027091F2028091F302AC
:102A50009091F40208958091F50208958091F60214
:102A600008958091F7020895809109030895282F11
:102A70009FB7F89480910803882339F082E080930F
:102A8000E9008091E80085FD03C09FBF8FEF0895A6
:102A900081EA8093F10080E28093F1001092F100CE
:102AA0001092F1001092F1001092F10081E08093F9
:102AB000F1001092F1002093F1008AE38093E80086
:102AC0009FBF80E008951F920F920FB60F921124BE
:102AD0008F939F938091E1001092E100982F83FFE4
:102AE00011C01092E90081E08093EB001092EC009D
:102AF00082E18093ED0088E08093F000109208035B
:102B00001092090392FF13C080910803882379F083
:102B100080910A03882359F0815080930A03882307
:102B200031F484E08093E9008AE38093E8009F9188
:102B30008F910F900FBE0F901F9018951F920F92BC
:102B40000FB60F9211240F931F932F933F934F9320
:102B50005F936F937F938F939F93AF93BF93EF9305
:102B6000FF931092E9008091E80083FF3CC14091FF
:102B7000F1003091F1008091F100682F70E0209118
:102B8000F100922F80E0682B792B8091F100A82F23
:102B9000B0E02091F100922F80E0A82BB92B10918A
:102BA000F1000091F10082EF8093E800363009F0E7
:102BB0005AC023E531E0A90145505040F90137974B
:102BC000859194918617970701F5FA018591949163
:102BD0008A179B07D1F49A012E5F3F4FF901659147
:102BE00074912E5F3F4FF9014491212F30E0902FD7
:102BF00080E0282B392B2F3F310519F010F02FEFF3
:102C000030E0241758F4422F09C0295F3F4F495F35
:102C10005F4FF1E02D373F0789F6E5C05EEF809109
:102C2000E800282F30E0C90185709070892BB9F336
:102C300022FDDCC0342F413108F030E1232FCB01DD
:102C400006C0FC010196E491E093F100215022239B
:102C5000C1F7630F711D431B5093E8004423F9F63D
:102C60003031E9F2C3C0353061F48EEF8093E80073
:102C70008091E80080FFFCCF862F80688093E3007E
:102C8000B5C0393051F5442309F0ADC06093080355
:102C90001092090310920A038EEF8093E80086E7F2
:102CA00091E021E02093E900FC010196E491E0939A
:102CB000EB00EE2369F0AC014F5F5F4FFC018491A4
:102CC0008093EC00CA010196FA0134913093ED0033
:102CD0002F5F253039F78EE181C0383061F44038FC
:102CE00009F081C08091E80080FFFCCF809108034B
:102CF0008093F10050C0313289F4413A09F073C039
:102D00008091E80080FFFCCFE1EFF2E081918093B9
:102D1000F10082E0E83FF807C9F73DC03032A1F486
:102D2000413209F060C08091E80082FFFCCFE1EF02
:102D3000F2E08091F100819382E0E83FF807C9F763
:102D40008BEF8093E80027C0323251F4413209F012
:102D50004AC0609309038091E80080FFFCCF1BC04C
:102D60003323E9F48091E80080FFFCCF423811F072
:102D700080E00DC0A093E9008091EB0090E025E099
:102D8000969587952A95E1F781701092E9008093D6
:102D9000F1001092F1008EEF8093E80027C03130EF
:102DA00011F0333001F54230F1F4672BE1F42A2FB2
:102DB0002F77822F81508430B0F48EEF8093E8001B
:102DC0002093E900333079F089E18093EB0081E0D2
:102DD00090E002C0880F991F2A95E2F78093EA00DD
:102DE0001092EA0003C081E28093EB00FF91EF9123
:102DF000BF91AF919F918F917F916F915F914F9113
:102E00003F912F911F910F910F900FBE0F901F9028
:102E10001895A1E1B0E0EFE0F7E10C9464213C01EA
:102E20007F876E876A01FC0117821682838181FD8C
:102E300003C06FEF7FEF6FC39E012F5F3F4F398B52
:102E4000288BF3012381EE85FF8523FD859123FFE8
:102E50008191FF87EE87882309F45AC3853251F4A4
:102E6000EE85FF8523FD859123FF8191FF87EE8706
:102E7000853229F490E0B3010E94FE22E2CF982F20
:102E800010E0882499241032B0F49B3269F09C320F
:102E900028F4903251F0933271F40BC09D3239F026
:102EA000903349F4116028C01260146025C0186086
:102EB00023C0106121C017FD2AC0892F80538A309A
:102EC00078F416FF06C0FAE09F9E902C1124980E0D
:102ED00013C03AE0839E802C1124880E10620CC02F
:102EE0009E3221F416FD14C3106406C09C3611F402
:102EF000106802C0983659F4EE85FF8523FD959140
:102F000023FF9191FF87EE87992309F0BCCF892F8A
:102F10008554833020F4812F8061905E07C0892F13
:102F20008556833008F09FC1812F8F7E86FD02C0B9
:102F300076E0972E6FE3F62EF822953619F4F0E43A
:102F4000FF2A07C0963619F420E8F22A02C0911031
:102F50009A94F7FE0AC03BE3391518F45CE3B52EEA
:102F600002C0B92CB39427E009C047E0491520F40A
:102F7000BB2447E0942EF7CF292DBB24C60104962D
:102F80009D878C87F6016081718182819381AE017A
:102F90004F5F5F4F0B2D0E9410226C010981202E84
:102FA000332400FF04C003FD02C01DE209C0F1FE8E
:102FB00002C01BE205C0F2FC02C010E001C010E23A
:102FC000C1018C709070892BB9F1112311F483E049
:102FD00001C084E0881510F088240AC0881AF3FC28
:102FE00007C080E290E0B3010E94FE228A94C9F7F4
:102FF000112329F0812F90E0B3010E94FE2223FECD
:1030000003C005E112E00EC009E112E00BC0E114BB
:10301000F10409F0805290E0B3010E94FE220F5F9C
:103020001F4F05C0EF2CFF24F0E1EF22FF24F80131
:103030008491882361F714C1F7FE12C0BC0C24FEF2
:1030400004C08A81813309F4BA941B141CF0BB2498
:10305000B3942DC0F8E0FB1550F538E0B32E27C02F
:10306000F6FC25C0892D90E08C159D054CF02CEFC9
:10307000C2162FEFD20624F030E8F32A01C09A944A
:10308000992049F0E2E0F0E0EC0FFD1FE90DF11DA1
:1030900080818033A1F3F7FE0AC0B92CB394892D47
:1030A00090E0C816D90614F0992401C09C18F7FCCA
:1030B00003C025E030E009C01C141D041CF021E011
:1030C00030E003C096012F5F3F4F112311F02F5FB7
:1030D0003F4F992029F0892D90E00196280F391F44
:1030E000882D90E02817390714F0882401C0821A2F
:1030F0004F2C5524C20189709070892B39F008C07B
:1031000080E290E0B3010E94FE228A948820C1F7F9
:10311000112329F0812F90E0B3010E94FE2243FE8B
:1031200007C008C080E390E0B3010E94FE228A94A9
:103130008820C1F7F7FE46C08601D7FE02C000E036
:1031400010E076010894E11CF11CE01AF10A41E05C
:1031500050E04C0F5D1FE40EF51E26014B18510880
:10316000892D90E0AA24BB24A81AB90A5FEF0F3F6B
:10317000150729F48EE290E0B3010E94FE22C016EA
:10318000D10634F0401651061CF4F701808101C0CD
:1031900080E3015010400894E11CF11C0A151B0546
:1031A0002CF090E0B3010E94FE22E0CF0C151D052B
:1031B00039F49A81963318F4953311F424FE81E39F
:1031C00090E04BC08A81813309F00F7E90E0B3011B
:1031D0000E94FE229920A1F08EE290E0B3010E94AD
:1031E000FE2212E0E1E0F0E0EC0FFD1FE10FF11D27
:1031F0001F5F808190E0B3010E94FE229A9491F7B4
:1032000044FC03C085E690E002C085E490E0B30191
:103210000E94FE22D7FC05C0C114D10441F404FF72
:1032200006C0D094C194D108D3948DE201C08BE242
:1032300090E0B3010E94FE2280E305C08F5F26EF7D
:103240003FEFC20ED31E3AE0C316D104BCF790E0A4
:10325000B3010E94FE22C601C096B3010E94FE2265
:10326000CC84DD8452C1933631F0933799F0933595
:1032700009F059C023C0F601808189835E0108945A
:10328000A11CB11C22E030E0C20ED31E21E0E22ED0
:10329000F12C12C0F601A080B18016FD03C06FEFC3
:1032A0007FEF02C0692D70E022E030E0C20ED31E35
:1032B000C5010E94F3227C011F7713C0F601A08094
:1032C000B18016FD03C06FEF7FEF02C0692D70E083
:1032D00022E030E0C20ED31EC5010E94E8227C012C
:1032E000106813FF07C01BC080E290E0B3010E948A
:1032F000FE228A94882D90E0E816F906A8F30FC004
:10330000F50117FD859117FF81915F0190E0B301F1
:103310000E94FE2281108A940894E108F108E114C9
:10332000F10471F7F2C0943611F0993689F517FF60
:1033300008C0F601208131814281538184E090E010
:103340000AC0F601808191819C01442737FD409598
:10335000542F82E090E0C80ED91E9FE6F92EF1228C
:1033600057FF09C050954095309521953F4F4F4FDD
:103370005F4F90E8F92ACA01B901AE014F5F5F4F74
:103380002AE030E00E944E23E82EE889EE1A41C080
:10339000953721F41F7E2AE030E01CC0197F9F364C
:1033A00061F0903720F4983509F0B2C00FC0903723
:1033B00039F0983709F0ACC004C028E030E00AC00A
:1033C000106114FD146020E130E004C014FD1660AB
:1033D00020E132E017FF08C0F6016081718182812F
:1033E000938144E050E008C0F60180819181BC01E6
:1033F00080E090E042E050E0C40ED51EAE014F5F89
:103400005F4F0E944E23E82E5889E51A8FE7F82E69
:10341000F122F6FE0BC08EEFF822E91438F4F4FE28
:1034200007C0F2FC05C09FEEF92202C01E2D01C0AC
:10343000192DF4FE0DC0FE01EE0DF11D80818033CB
:1034400019F4E9EEFE2208C01F5FF2FE05C003C0BA
:103450008F2D867809F01F5F0F2DF3FC14C0F0FE4E
:103460000FC0181510F09E2C0BC09E2C980C911AB2
:10347000182D06C080E290E0B3010E94FE221F5F7B
:103480001815C0F304C0181510F4811A01C088245F
:1034900004FF0FC080E390E0B3010E94FE2202FF10
:1034A0001DC001FD03C088E790E00EC088E590E0F4
:1034B0000BC0802F867891F001FF02C08BE201C023
:1034C00080E2F7FC8DE290E0B3010E94FE2206C08C
:1034D00080E390E0B3010E94FE229A94E914C0F3C5
:1034E000EA94E1E0F0E0EC0FFD1FEE0DF11D8081AC
:1034F00090E0B3010E94FE22EE2091F706C080E228
:1035000090E0B3010E94FE228A948820C1F799CCF2
:10351000F30166817781CB016196E2E10C94802111
:10352000E4E7F3E0119285E0EC36F807D9F7089567
:10353000843580F5603370F5262F269526952695DF
:10354000677090E0442399F0E4E52E9FF001112488
:10355000E80FF91FEC58FC4F81E090E002C0880FA3
:10356000991F6A95E2F72081282B20830895E4E5CE
:103570002E9FF0011124E80FF91FEC58FC4F81E059
:1035800090E002C0880F991F6A95E2F7809520812C
:103590002823208308952F923F924F925F926F923B
:1035A0007F928F929F92AF92BF92CF92DF92EF92D3
:1035B000FF920F931F93DF93CF93CDB7DEB72D9775
:1035C0000FB6F894DEBF0FBECDBFD82EC62E142F77
:1035D000022F8417F9F4A62EBB24E22EFF240EC07E
:1035E0008D2D6A2D41E00E94981AC01620F408948F
:1035F000A11CB11C03C00894A108B108C01628F48E
:10360000EA14FB040CF4FEC0EBCFAE14BF040CF4C0
:10361000F9C0E6CF282F30E06017F9F4C9015C014A
:10362000E42EFF240EC08A2D6C2D41E00E94981AD2
:10363000D11620F40894A11CB11C03C00894A10861
:10364000B108D11628F4EA14FB040CF4DBC0EBCF6C
:10365000AE14BF040CF4D6C0E6CF842F90E09A835A
:103660008983C9015C0169817A81681B790B88278C
:1036700077FD8095982F0E940A1F6F83788789872E
:103680009A87202E33244C2C5524B10164197509D6
:10369000882777FD8095982F0E940A1F3B014C01D7
:1036A0002F81388549855A850E946F1E6B837C83E4
:1036B0008D839E8320E030E040E050E00E94462071
:1036C00087FF0DC0C401B30190582F81388549850B
:1036D0005A850E946F1E6B837C838D839E830F2E81
:1036E000F0E0CF2EF0E0DF2EF0E0EF2EF0E0FF2E46
:1036F000F02D70C0AB868A2D642D41E00E94981A8F
:10370000C701B6012B813C814D815E810E94F11D74
:1037100031C08B85642D41E00E94981A1D861C865D
:10372000C401B30120E030E040E050E00E944620B8
:10373000181624F4E1E0F0E0FD87EC8700E010E0EB
:10374000C401B30120E030E040E050E00E94681E78
:10375000882314F401E010E08C859D85801B910B7B
:10376000480E591EC701B60120E030E040E85FE393
:103770000E94F01D6B017C0120E030E040E05FE33F
:103780000E94462088239CF0C401B30120E030E071
:1037900040E050E00E94462018162CF42414350412
:1037A0000CF0B7CF04C0421453040CF0B2CF6F81B9
:1037B000788589859A8520E030E040E050E00E94DD
:1037C0004620181624F40894A11CB11C03C00894C8
:1037D000A108B1086F81788589859A8520E030E05D
:1037E00040E050E00E944620181634F4E981FA8146
:1037F000EA15FB053CF07ECF89819A81A816B906AF
:103800000CF078CF2D960FB6F894DEBF0FBECDBF6B
:10381000CF91DF911F910F91FF90EF90DF90CF90AC
:10382000BF90AF909F908F907F906F905F904F90E0
:103830003F902F9008958F929F92AF92BF92CF9218
:10384000DF92EF92FF920F931F93CF93DF93D82EC7
:10385000C62E85E0489FA00111248A0103581E4FFF
:1038600091E0892E912C82E8A82E81E0B82EA40E3A
:10387000B51E1EC06C2D6C0FA4010C2E02C0440F8F
:10388000551F0A94E2F74E215F210C2E02C0559578
:1038900047950A94E2F78D2D0E94981A2196C83018
:1038A000D10541F70F5F1F4FD3940A151B0539F05F
:1038B000C0E0D0E0F8018491E82EFF24DBCFDF9157
:1038C000CF911F910F91FF90EF90DF90CF90BF901D
:1038D000AF909F908F9008950F931F93CF93DF9396
:1038E000182F062FEA0106C0812F602F0E941B1C93
:1038F00021961B5F48814423B9F7DF91CF911F9137
:103900000F910895CF93DF9380E060E00E942A1D1D
:10391000C4E7D3E081E069910E94951C85E0CC3634
:10392000D807C1F7DF91CF91089595B18295880F9F
:10393000807E9F7D982B95B95F9827E030E070E0FE
:103940008F98CB01022E02C0959587950A94E2F7D5
:1039500080FF02C02E9A01C02E988F9A21503040CD
:103960008FEF2F3F380761F75F9A08951F93182F45
:10397000579A249A259A269A879A2C985F9A2C9A75
:1039800080E061E20E94951C106880E0612F0E9437
:10399000951C80E064E00E94951C80E063E10E9439
:1039A000951C80E06CE00E94951C80E060E20E9423
:1039B000951C80E06CE00E94951C80E060E40E9411
:1039C000951C80E060E80E94951C1F910895CF939C
:1039D000DF93C0E0D0E081E060E00E94951C21967A
:1039E00081E0C83FD807B9F7DF91CF9108950F93D1
:1039F0001F93CF93DF93082F81E060E00E94951C16
:103A000085E0089F80011124E801C35ADC4F0B595F
:103A1000104003501C4FFE01649181E00E94951CF0
:103A20002196C017D107B9F781E060E00E94951C8C
:103A3000DF91CF911F910F910895CF93DF93EC0108
:103A400003C00E94F71C219688818823D1F7DF915B
:103A5000CF9108951F93182F606480E00E94951CF9
:103A6000106880E0612F0E94951C1F910895AF920D
:103A7000BF92CF92EF920F931F93FC01408351832B
:103A8000628373830483158326833783E08AC18A24
:103A9000B48AA38A81E0828B80E090E0A0E0B0E06D
:103AA00080879187A287B38784879587A687B78702
:103AB0001F910F91EF90CF90BF90AF9008953F92DC
:103AC0004F925F926F927F928F929F92AF92BF922E
:103AD000CF92DF92EF92FF920F931F93CF93DF93DA
:103AE000EC018A89882309F469C0688970E0882715
:103AF00077FD8095982F0E940A1F20E030E040E07B
:103B00005EE30E944A200E94551E0E94DC1E362E53
:103B1000882447C0092D10E0B801882777FD8095DB
:103B2000982F0E940A1F20E030E040E05EE30E94F0
:103B30004A200E94451F6B017C01688179818A813E
:103B40009B810E94DC1EA92CA60E6C817D818E813A
:103B50009F810E94DC1EB82CB60EC301B2010E94E8
:103B60000A1FA70196010E94F11D0E94D71EEB8932
:103B7000FC89E60FF71F408150E000951095077013
:103B8000107002C0559547950A95E2F741708A2D4D
:103B90006B2D0E94981A93948889981608F4BACFCE
:103BA00083948989881650F4839CC0011124992438
:103BB0002C01662457FC6094762CEECFDF91CF91D8
:103BC0001F910F91FF90EF90DF90CF90BF90AF903B
:103BD0009F908F907F906F905F904F903F9008954F
:103BE0005058BB27AA270ED0EFC1B8D130F0BDD1B5
:103BF00020F031F49F3F11F41EF4ADC10EF4E095B6
:103C0000E7FB7AC1E92F02D280F3BA176207730784
:103C10008407950718F071F49EF531C20EF4E09513
:103C20000B2EBA2FA02D0B01B90190010C01CA0176
:103C3000A0011124FF27591B99F0593F50F4503E21
:103C400068F11A16F040A22F232F342F4427585F13
:103C5000F3CF469537952795A795F0405395C9F72B
:103C60007EF41F16BA0B620B730B840BBAF09150E3
:103C7000A1F0FF0FBB1F661F771F881FC2F70EC082
:103C8000BA0F621F731F841F48F487957795679555
:103C9000B795F7959E3F08F0B3CF9395880F08F03E
:103CA0009927EE0F979587950895D2D180F09F3789
:103CB00040F491110EF4E4C160E070E080E89FE30D
:103CC000089526F01B16611D711D811D1BC135C194
:103CD000EFD008F481E0089550D1E39586C10CD06F
:103CE00073C143D140F03AD130F021F45F3F19F075
:103CF00003C15111C5C12FC189D198F39923C9F3CB
:103D00005523B1F3951B550BBB27AA2762177307E1
:103D1000840738F09F5F5F4F220F331F441FAA1F95
:103D2000A9F333D00E2E3AF0E0E830D09150504055
:103D3000E695001CCAF729D0FE2F27D0660F771F03
:103D4000881FBB1F261737074807AB07B0E809F0E5
:103D5000BB0B802DBF01FF2793585F4F2AF09E3F7A
:103D6000510568F0C9C08CC15F3FECF3983EDCF3AD
:103D7000869577956795B795F7959F5FC9F7880FF3
:103D8000911D9695879597F90895E1E0660F771F45
:103D9000881FBB1F621773078407BA0720F0621BD6
:103DA000730B840BBA0BEE1F88F7E095089504D0CF
:103DB0006894B11165C1089531D188F09F5790F092
:103DC000B92F9927B751A0F0D1F0660F771F881F40
:103DD000991F1AF0BA95C9F712C0B13081F04FD1CE
:103DE000B1E008954CC1672F782F8827B85F39F06C
:103DF000B93FCCF3869577956795B395D9F73EF49F
:103E000090958095709561957F4F8F4F9F4F089546
:103E1000E89409C097FB3EF4909580957095619564
:103E20007F4F8F4F9F4F9923A9F0F92F96E9BB271A
:103E30009395F695879577956795B795F111F8CF96
:103E4000FAF4BB0F11F460FF1BC06F5F7F4F8F4F01
:103E50009F4F16C0882311F096E911C0772321F0F7
:103E60009EE8872F762F05C0662371F096E8862F8F
:103E700070E060E02AF09A95660F771F881FDAF7E6
:103E8000880F9695879597F90895E2D080F09F372F
:103E900040F491110EF0F4C060E070E080E89FEB18
:103EA000089526F41B16611D711D811D2BC045C090
:103EB000990F0008550FAA0BE0E8FEEF161617063B
:103EC000E807F907C0F012161306E407F50798F0A3
:103ED000621B730B840B950B39F40A2661F0232BBC
:103EE000242B252B21F408950A2609F4A140A69538
:103EF0008FEF811D811D089597F99F6780E870E01D
:103F000060E00895882371F4772321F09850872B7F
:103F1000762F07C0662311F499270DC09051862B88
:103F200070E060E02AF09A95660F771F881FDAF735
:103F3000880F9695879597F908959F3F31F0915096
:103F400020F4879577956795B795880F911D96957D
:103F5000879597F908959FEF80EC089500240A94BF
:103F60001616170618060906089500240A94121654
:103F70001306140605060895EECF50D0E8F3E89432
:103F8000E0E0BB279F57F0F02AED3FE049EC06C088
:103F9000EE0FBB0F661F771F881F28F0B23A62072B
:103FA0007307840728F0B25A620B730B840BE395F6
:103FB0009A9572F7803830F49A95BB0F661F771F79
:103FC000881FD2F79048BBCF092E0394000C11F440
:103FD000882352F0BB0F40F4BF2B11F460FF04C0E4
:103FE0006F5F7F4F8F4F9F4F0895EF93E0FF06C0A5
:103FF000A2EA2AED3FE049EC5FEB04DEE5DF0F903B
:10400000039401FC9058EEE2F1E0F6C057FD9058A1
:10401000440F551F59F05F3F71F04795880F97FB8C
:10402000991F61F09F3F79F0879508951216130646
:104030001406551FF2CF4695F1DF08C01616170675
:104040001806991FF1CF86957105610508940895AA
:10405000E5DFA0F0BEE7B91788F4BB279F3860F40E
:104060001616B11D672F782F8827985FF7CF869592
:1040700077956795B11D93959639C8F30895E8949F
:10408000BB2766277727CB0197F9089511DF08F43E
:104090008FEF08950BD098CF61DF28F066DF18F01E
:1040A000952309F029CF57CF1124EACFAFDFA0F332
:1040B000959FD1F3950F50E0551F629FF001729FBD
:1040C000BB27F00DB11D639FAA27F00DB11DAA1FDC
:1040D000649F6627B00DA11D661F829F2227B00D29
:1040E000A11D621F739FB00DA11D621F839FA00DB4
:1040F000611D221F749F3327A00D611D231F849F04
:10410000600D211D822F762F6A2F11249F5750405A
:104110008AF0E1F088234AF0EE0FFF1FBB1F661FF5
:10412000771F881F91505040A9F79E3F510570F0AE
:10413000E3CEA6CF5F3FECF3983EDCF38695779510
:104140006795B795F795E7959F5FC1F7FE2B880FA9
:10415000911D9695879597F908959F930EDF0F907F
:1041600007FCEE5F42CF11F40EF4F5CEE6CE56DF3B
:10417000D0F39923D9F3CEF39F57550B87FF35D052
:104180000024A0E640EA900180585695979528F4BF
:10419000805C660F771F881F20F0261737074807B7
:1041A00030F4621B730B840B202931294A2BA6950E
:1041B00017940794202531254A2758F7660F771F53
:1041C000881F20F026173707480730F4620B730B5F
:1041D000840B200D311D411DA09581F7B901842F5D
:1041E0009158880F96958795089591505040660F85
:1041F000771F881FD2F708959F938F937F936F93B4
:10420000FF93EF939B01AC0145DFEF91FF9105D048
:104210002F913F914F915F913DCFDF93CF931F93AC
:104220000F93FF92EF92DF927B018C01689405C09F
:10423000DA2EEF013BDFFE01E894A591259135913F
:1042400045915591AEF3EF01DDDCFE019701A80128
:10425000DA9479F7DF90EF90FF900F911F91CF9153
:10426000DF910895629FD001739FF001829FE00D5E
:10427000F11D649FE00DF11D929FF00D839FF00DE5
:10428000749FF00D659FF00D9927729FB00DE11D91
:10429000F91F639FB00DE11DF91FBD01CF0111246E
:1042A000089597FB092E07260AD077FD04D043D046
:1042B00006D000201AF4709561957F4F0895F6F7A7
:1042C000909581959F4F08952F923F924F925F92C4
:1042D0006F927F928F929F92AF92BF92CF92DF9216
:1042E000EF92FF920F931F93CF93DF93CDB7DEB77B
:1042F000CA1BDB0B0FB6F894DEBF0FBECDBF09940F
:104300002A88398848885F846E847D848C849B8465
:10431000AA84B984C884DF80EE80FD800C811B8173
:10432000AA81B981CE0FD11D0FB6F894DEBF0FBEA2
:10433000CDBFED010895AA1BBB1B51E107C0AA1F09
:10434000BB1FA617B70710F0A61BB70B881F991F36
:104350005A95A9F780959095BC01CD010895A0E0EC
:10436000B0E0E5EBF1E20C946C21EC01A880B9809F
:10437000CA80DB80A114B104C104D10441F484E2F9
:10438000A82E89EDB82E8BE5C82E87E0D82EC60161
:10439000B5012DE133EF41E050E00E94AC2327EA64
:1043A00031E440E050E00E9432217B018C01C601E3
:1043B000B5012DE133EF41E050E00E94AC23CA018A
:1043C000B9012CEE34EF4FEF5FEF0E9432216E0DFA
:1043D0007F1D801F911F97FF04C061507040804077
:1043E0009048688379838A839B839B013F77C901C7
:1043F000CDB7DEB7EAE00C9488210E94AF21089582
:1044000088EF92E00E94AF210895A0E0B0E0809391
:10441000F8029093F902A093FA02B093FB02089578
:10442000283008F027E03327DA01990F311D87FD86
:10443000916000966105710539F432602E5F3D93FD
:1044400030E32A95E1F708959F3F30F080387105F9
:10445000610509F03C5F3C5F3D93913008F0806856
:10446000911DDF93CF931F930F93FF92EF92192F1C
:10447000987F9695E92F96959695E90FFF27E95C29
:10448000F94F99273327EE24FF24A701E701059070
:104490000894079428F4360FE71EF81E491F511D93
:1044A000660F771F881F991F0694A1F70590079440
:1044B00028F4E70EF81E491F561FC11D770F881FED
:1044C000991F661F0694A1F70590079428F4F80E2B
:1044D000491F561FC71FD11D880F991F661F771FC1
:1044E0000694A1F70590079420F4490F561FC71FA3
:1044F000D81F990F661F771F881F0694A9F784910C
:104500001095177041F0D695C79557954795F79434
:10451000E7941A95C1F7EDEDF5E0689415901591C3
:1045200035916591959105907FE27395E118F10AB7
:10453000430B560BC90BD009C0F7E10CF11E431F0A
:10454000561FC91FD01D7EF4703311F48A95E6CF33
:10455000E894015030F0080F0AF40027021708F41D
:10456000202F2395022F7A3328F079E37D932A9523
:10457000E9F710C07D932A9589F60694979567957B
:10458000379517951794E118F10A430B560BC90B91
:10459000D00998F023957E9173957A3308F070E3F3
:1045A0007C932013B8F77E9170617D9330F08395F2
:1045B00071E37D9370E32A95E1F71124EF90FF906A
:1045C0000F911F91CF91DF91992787FD90950895C5
:1045D000FC010590615070400110D8F780959095CE
:1045E0008E0F9F1F0895FC016150704001900110D3
:1045F000D8F7809590958E0F9F1F08950F931F9366
:10460000CF93DF938C01EB018B8181FF1BC082FF75
:104610000DC02E813F818C819D812817390764F45C
:10462000E881F9810193F983E88306C0E885F9857B
:10463000802F0995892B31F48E819F8101969F836C
:104640008E8302C00FEF1FEFC801DF91CF911F9142
:104650000F910895AEE0B0E0E0E3F3E20C94722134
:104660000D891E8986E08C831A8309838FEF9FE76B
:104670009E838D839E01275E3F4FCE0101966F89F9
:10468000788DA9010E9409172F813885020F131F09
:10469000F80110822E96E4E00C948E21FA01AA27EC
:1046A000283051F1203181F1E8946F936E7F6E5F75
:1046B0007F4F8F4F9F4FAF4FB1E03ED0B4E03CD023
:1046C000670F781F891F9A1FA11D680F791F8A1F06
:1046D000911DA11D6A0F711D811D911DA11D20D06D
:1046E00009F468943F912AE0269F11243019305D27
:1046F0003193DEF6CF010895462F4770405D419318
:10470000B3E00FD0C9F7F6CF462F4F70405D4A3364
:1047100018F0495D31FD4052419302D0A9F7EACF2C
:10472000B4E0A6959795879577956795BA95C9F75B
:1047300000976105710508959B01AC010A2E06944E
:104740005795479537952795BA95C9F7620F731F07
:10475000841F951FA01D089597FB092E05260ED0D6
:1047600057FD04D014D00AD0001C38F45095409561
:10477000309521953F4F4F4F5F4F0895F6F7909535
:104780008095709561957F4F8F4F9F4F0895A1E25F
:104790001A2EAA1BBB1BFD010DC0AA1FBB1FEE1FBB
:1047A000FF1FA217B307E407F50720F0A21BB30B06
:1047B000E40BF50B661F771F881F991F1A9469F782
:1047C00060957095809590959B01AC01BD01CF01DE
:0647D0000895F894FFCFEC
:1047D600436F6C6C6973696F6E206265747765658B
:1047E6006E20416E67727920616E6420536D696C2C
:1047F600657900436F6C6C6973696F6E20626574CE
:104806007765656E20416E67727920616E6420431C
:1048160072617A7900436F6C6C6973696F6E20629E
:1048260065747765656E20536D696C657920616E78
:1048360064204372617A7900497420666F6F6B69F0
:104846006E20776F726B656421004C3A25640053C5
:104856003A25303264004C766C3A25640053656C18
:104866006563742061206C6576656C21003E204C82
:104876006576656C2031203C004C6576656C203190
:10488600003E204C6576656C2032203C004C6576F7
:10489600656C2032003E204C6576656C2033203CEA
:1048A600004C6576656C203300506C65617365203D
:1048B600436F6E6E6563740053657269616C205454
:1048C60065726D696E616C2E2E2E002D2D2D205772
:1048D600454C434F4D4520544F2046414C4C494E84
:1048E60047464143455321202D2D2D005573652004
:1048F60074686520772C20612C207320616E6420FB
:1049060064206B65797320746F206D6F76652079EE
:104916006F757220706C617965722075702C206CD1
:104926006566742C20646F776E20616E64207269F0
:1049360067687420726573706563746976656C79EF
:104946002E2E2E004F68204E6F210054686520479A
:10495600616D65210057696E6E65722057696E6ECE
:1049660065722100436869636B656E2044696E6EEB
:104976006572210054796C6F722053746577617289
:1049860074006E3930313335353500030000008050
:104996003F00000040000040407E81A58199A5812E
:1049A6007E7E81A581A599817E7E85A181BD898135
:1049B6007E183C7EDBFF5A8142183C7EDBFF245A80
:0C49C600A500E100000000080100000056
:00000001FF
