:100000000C9436020C9453020C9453020C94530239
:100010000C9453020C9453020C9453020C9453020C
:100020000C9453020C9453020C9453020C945302FC
:100030000C9453020C9453020C9453020C945302EC
:100040000C9453020C9453020C9453020C945302DC
:100050000C9453020C9453020C9453020C945302CC
:100060000C9453020C9453020C9453020C945302BC
:100070000C9453020C9453020C9453020C945302AC
:100080000C9453020C9453020C9453020C9453029C
:100090000C9453020C9453020C9453020C9453028C
:1000A0000C9453020C9453020C9453020000000071
:1000B0000000005F00000007000700147F147F1499
:1000C000242A7F2A122313086462364955225000DD
:1000D00005030000001C2241000041221C001408FE
:1000E0003E081408083E08080050300000080808C0
:1000F0000808006060000020100804023E514945D5
:100100003E00427F400042615149462141454B310A
:100110001814127F1027454545393C4A494930019A
:10012000710905033649494936064949291E0036F1
:100130003600000056360000081422410014141442
:100140001414004122140802015109063249794170
:100150003E7E1111117E7F494949363E414141227F
:100160007F4141221C7F494949417F090909013EDC
:100170004149497A7F0808087F00417F41002040BB
:10018000413F017F081422417F404040407F020CE4
:10019000027F7F0408107F3E4141413E7F090909EB
:1001A000063E4151215E7F09192946464949493198
:1001B00001017F01013F4040403F1F2040201F3F81
:1001C0004038403F63140814630708700807615102
:1001D000494543007F41410002040810200041418D
:1001E0007F0004020102044040404040000102043C
:1001F0000020545454787F484444383844444420C0
:10020000384444487F3854545418087E0901020C7D
:100210005252523E7F0804047800447D4000204042
:10022000443D007F1028440000417F40007C0418BA
:1002300004787C0804047838444444387C1414144A
:1002400008081414187C7C080404084854545420EA
:10025000043F4440203C4040207C1C2040201C3C6B
:100260004030403C44281028440C5050503C4464DA
:10027000544C44000836410000007F000000413625
:100280000800100808100878464146780000000071
:100290000000005F00000007000700147F147F14B7
:1002A000242A7F2A122313086462364955225000FB
:1002B00005030000001C2241000041221C0014081C
:1002C0003E081408083E08080050300000080808DE
:1002D0000808006060000020100804023E514945F3
:1002E0003E00427F400042615149462141454B3129
:1002F0001814127F1027454545393C4A49493001B9
:10030000710905033649494936064949291E00360F
:100310003600000056360000081422410014141460
:10032000141400412214080201510906324979418E
:100330003E7E1111117E7F494949363E414141229D
:100340007F4141221C7F494949417F090909013EFA
:100350004149497A7F0808087F00417F41002040D9
:10036000413F017F081422417F404040407F020C02
:10037000027F7F0408107F3E4141413E7F09090909
:10038000063E4151215E7F091929464649494931B6
:1003900001017F01013F4040403F1F2040201F3F9F
:1003A0004038403F63140814630708700807615120
:1003B000494543007F4141000204081020004141AB
:1003C0007F0004020102044040404040000102045A
:1003D0000020545454787F484444383844444420DE
:1003E000384444487F3854545418087E0901020C9C
:1003F0005252523E7F0804047800447D4000204061
:10040000443D007F1028440000417F40007C0418D8
:1004100004787C0804047838444444387C14141468
:1004200008081414187C7C08040408485454542008
:10043000043F4440203C4040207C1C2040201C3C89
:100440004030403C44281028440C5050503C4464F8
:10045000544C44000836410000007F000000413643
:1004600008001008081008784641467811241FBE7D
:10047000CFEFDAE0DEBFCDBF11E0A0E0B1E0E4E80D
:10048000F1E102C005900D92A03AB107D9F713E04F
:10049000A0EAB1E001C01D92A839B107E1F70E94BE
:1004A00055020C94C0080C9400008F929F92AF925A
:1004B000BF92CF92EF920F931F93DF93CF93CDB75D
:1004C000DEB765970FB6F894DEBF0FBECDBF80E8EC
:1004D0008093610081E0809361008FE30E94DE04DD
:1004E0004E010894811C911CC40140E050E068E07A
:1004F00072E400E010E020E831E4F0E1EF2EE0E10A
:10050000CE2EAA24BB240E945F0538ECA32EB12C6A
:1005100004E010E00E94B802C80165E070E00E94AB
:10052000990825E0880F991F2A95E1F780509F4F81
:100530009D8B8C8BC4010E9487050E94AA0488E8C9
:1005400093E1F5013197F1F70197D9F70150104088
:100550008FEF0F3F1807F1F60E94B8020E94AA041D
:1005600080E395E7F5013197F1F70197D9F7D0CFFF
:10057000E0EAF1E0119283E0E839F807D9F708954D
:10058000843580F5603370F5262F269526952695BF
:10059000677090E0442399F0E4E52E9FF001112468
:1005A000E80FF91FE056FE4F81E090E002C0880F8F
:1005B000991F6A95E2F72081282B20830895E4E5AE
:1005C0002E9FF0011124E80FF91FE056FE4F81E045
:1005D00090E002C0880F991F6A95E2F7809520810C
:1005E0002823208308952F923F924F925F926F921B
:1005F0007F928F929F92AF92BF92CF92DF92EF92B3
:10060000FF920F931F93DF93CF93CDB7DEB72D9754
:100610000FB6F894DEBF0FBECDBFD82EC62E142F56
:10062000022F8417F9F4A62EBB24E22EFF240EC05D
:100630008D2D6A2D41E00E94C002C01620F408945E
:10064000A11CB11C03C00894A108B108C01628F46D
:10065000EA14FB040CF4FEC0EBCFAE14BF040CF4A0
:10066000F9C0E6CF282F30E06017F9F4C9015C012A
:10067000E42EFF240EC08A2D6C2D41E00E94C002A2
:10068000D11620F40894A11CB11C03C00894A10841
:10069000B108D11628F4EA14FB040CF4DBC0EBCF4C
:1006A000AE14BF040CF4D6C0E6CF842F90E09A833A
:1006B0008983C9015C0169817A81681B790B88276C
:1006C00077FD8095982F0E942F076F837887898701
:1006D0009A87202E33244C2C5524B10164197509B6
:1006E000882777FD8095982F0E942F073B014C01AA
:1006F0002F81388549855A850E9494066B837C83B7
:100700008D839E8320E030E040E050E00E9432087C
:1007100087FF0DC0C401B30190582F8138854985EA
:100720005A850E9494066B837C838D839E830F2E53
:10073000F0E0CF2EF0E0DF2EF0E0EF2EF0E0FF2E25
:10074000F02D70C0AB868A2D642D41E00E94C0025E
:10075000C701B6012B813C814D815E810E94190643
:1007600031C08B85642D41E00E94C0021D861C862D
:10077000C401B30120E030E040E050E00E943208C4
:10078000181624F4E1E0F0E0FD87EC8700E010E0CB
:10079000C401B30120E030E040E050E00E94900648
:1007A000882314F401E010E08C859D85801B910B5B
:1007B000480E591EC701B60120E030E040E85FE373
:1007C0000E9418066B017C0120E030E040E05FE30E
:1007D0000E94320888239CF0C401B30120E030E07D
:1007E00040E050E00E94320818162CF4241435041E
:1007F0000CF0B7CF04C0421453040CF0B2CF6F8199
:10080000788589859A8520E030E040E050E00E94BC
:100810003208181624F40894A11CB11C03C00894D3
:10082000A108B1086F81788589859A8520E030E03C
:1008300040E050E00E943208181634F4E981FA8151
:10084000EA15FB053CF07ECF89819A81A816B9068E
:100850000CF078CF2D960FB6F894DEBF0FBECDBF4B
:10086000CF91DF911F910F91FF90EF90DF90CF908C
:10087000BF90AF909F908F907F906F905F904F90C0
:100880003F902F9008958F929F92AF92BF92CF92F8
:10089000DF92EF92FF920F931F93CF93DF93D82EA7
:1008A000C62E85E0489FA00111248A01045F1F4FD6
:1008B00091E0892E912C81E1A82E80E0B82EA40E23
:1008C000B51E1EC06C2D6C0FA4010C2E02C0440F6F
:1008D000551F0A94E2F74E215F210C2E02C0559558
:1008E00047950A94E2F78D2D0E94C0022196C830E8
:1008F000D10541F70F5F1F4FD3940A151B0539F03F
:10090000C0E0D0E0F8018491E82EFF24DBCFDF9136
:10091000CF911F910F91FF90EF90DF90CF90BF90FC
:10092000AF909F908F9008950F931F93CF93DF9375
:10093000182F062FEA0106C0812F602F0E94430462
:1009400021961B5F48814423B9F7DF91CF911F9116
:100950000F910895CF93DF9380E060E00E945205ED
:10096000C0EAD1E081E069910E94BD0483E0C8390A
:10097000D807C1F7DF91CF91089595B18295880F7F
:10098000807E9F7D982B95B95F9827E030E070E0DE
:100990008F98CB01022E02C0959587950A94E2F7B5
:1009A00080FF02C02E9A01C02E988F9A21503040AD
:1009B0008FEF2F3F380761F75F9A08951F93182F25
:1009C000579A249A259A269A879A2C985F9A2C9A55
:1009D00080E061E20E94BD04106880E0612F0E9407
:1009E000BD0480E064E00E94BD0480E063E10E94F9
:1009F000BD0480E06CE00E94BD0480E060E20E94E3
:100A0000BD0480E06CE00E94BD0480E060E40E94D0
:100A1000BD0480E060E80E94BD041F910895CF935B
:100A2000DF93C0E0D0E081E060E00E94BD04219649
:100A300081E0C83FD807B9F7DF91CF9108950F93B0
:100A40001F93CF93DF93082F81E060E00E94BD04E5
:100A500085E0089F80011124E801C451DE4F0B5945
:100A6000104004571D4FFE01649181E00E94BD04B7
:100A70002196C017D107B9F781E060E00E94BD045C
:100A8000DF91CF911F910F910895CF93DF93EC01E8
:100A900003C00E941F05219688818823D1F7DF912A
:100AA000CF9108951F93182F606480E00E94BD04C9
:100AB000106880E0612F0E94BD041F910895AF92DD
:100AC000BF92CF92EF920F931F93FC01408351830B
:100AD000628373830483158326833783E08AC18A04
:100AE000B48AA38A81E0828B80E090E0A0E0B0E04D
:100AF00080879187A287B38784879587A687B787E2
:100B00001F910F91EF90CF90BF90AF9008953F92BB
:100B10004F925F926F927F928F929F92AF92BF920D
:100B2000CF92DF92EF92FF920F931F93CF93DF93B9
:100B3000EC018A89882309F469C0688970E08827F4
:100B400077FD8095982F0E942F0720E030E040E04D
:100B50005EE30E9436080E947D060E940107362E41
:100B6000882447C0092D10E0B801882777FD8095BB
:100B7000982F0E942F0720E030E040E05EE30E94C3
:100B800036080E946A076B017C01688179818A813D
:100B90009B810E940107A92CA60E6C817D818E810C
:100BA0009F810E940107B82CB60EC301B2010E94BA
:100BB0002F07A70196010E9419060E94FC06EB89E7
:100BC000FC89E60FF71F408150E0009510950770F3
:100BD000107002C0559547950A95E2F741708A2D2D
:100BE0006B2D0E94C00293948889981608F4BACF9E
:100BF00083948989881650F4839CC0011124992418
:100C00002C01662457FC6094762CEECFDF91CF91B7
:100C10001F910F91FF90EF90DF90CF90BF90AF901A
:100C20009F908F907F906F905F904F903F9008952E
:100C30005058BB27AA270ED0C4C1B5D130F0BAD1C5
:100C400020F031F49F3F11F41EF4AAC10EF4E09598
:100C5000E7FB77C1E92FC6D180F3BA1762077307A4
:100C60008407950718F071F49EF5F5C10EF4E09530
:100C70000B2EBA2FA02D0B01B90190010C01CA0156
:100C8000A0011124FF27591B99F0593F50F4503E01
:100C900068F11A16F040A22F232F342F4427585FF3
:100CA000F3CF469537952795A795F0405395C9F70B
:100CB0007EF41F16BA0B620B730B840BBAF09150C3
:100CC000A1F0FF0FBB1F661F771F881FC2F70EC062
:100CD000BA0F621F731F841F48F487957795679535
:100CE000B795F7959E3F08F0B3CF9395880F08F01E
:100CF0009927EE0F97958795089596D180F09F37A5
:100D000040F491110EF4A8C160E070E080E89FE328
:100D1000089526F01B16611D711D811D18C132C179
:100D2000ECD008F481E008950CD04BC143D140F0E1
:100D30003AD130F021F45F3F19F003C151118CC159
:100D40002FC150D198F39923C9F35523B1F3951BC3
:100D5000550BBB27AA2762177307840738F09F5FDC
:100D60005F4F220F331F441FAA1FA9F333D00E2E4B
:100D70003AF0E0E830D091505040E695001CCAF7B8
:100D800029D0FE2F27D0660F771F881FBB1F26177D
:100D900037074807AB07B0E809F0BB0B802DBF0150
:100DA000FF2793585F4F2AF09E3F510568F0C9C056
:100DB00053C15F3FECF3983EDCF3869577956795DA
:100DC000B795F7959F5FC9F7880F911D9695879501
:100DD00097F90895E1E0660F771F881FBB1F621720
:100DE00073078407BA0720F0621B730B840BBA0BDE
:100DF000EE1F88F7E095089504D06894B1112CC1D6
:100E00000895F8D088F09F5790F0B92F9927B751DF
:100E1000A0F0D1F0660F771F881F991F1AF0BA95BE
:100E2000C9F712C0B13081F016D1B1E0089513C1F5
:100E3000672F782F8827B85F39F0B93FCCF38695B4
:100E400077956795B395D9F73EF490958095709511
:100E500061957F4F8F4F9F4F0895E89409C097FB8E
:100E60003EF490958095709561957F4F8F4F9F4F81
:100E70009923A9F0F92F96E9BB279395F6958795C5
:100E800077956795B795F111F8CFFAF4BB0F11F488
:100E900060FF1BC06F5F7F4F8F4F9F4F16C088232F
:100EA00011F096E911C0772321F09EE8872F762F65
:100EB00005C0662371F096E8862F70E060E02AF0A6
:100EC0009A95660F771F881FDAF7880F9695879592
:100ED00097F90895A9D080F09F3740F491110EF052
:100EE000BBC060E070E080E89FEB089526F41B161D
:100EF000611D711D811D2BC045C0990F0008550F44
:100F0000AA0BE0E8FEEF16161706E807F907C0F08F
:100F100012161306E407F50798F0621B730B840B97
:100F2000950B39F40A2661F0232B242B252B21F471
:100F300008950A2609F4A140A6958FEF811D811D11
:100F4000089597F99F6780E870E060E0089588232E
:100F500071F4772321F09850872B762F07C06623F2
:100F600011F499270DC09051862B70E060E02AF0B3
:100F70009A95660F771F881FDAF7880F96958795E1
:100F800097F908959F3F31F0915020F48795779518
:100F90006795B795880F911D9695879597F9089550
:100FA0009FEF80EC089500240A9416161706180681
:100FB0000906089500240A9412161306140605065D
:100FC0000895092E0394000C11F4882352F0BB0FEE
:100FD00040F4BF2B11F460FF04C06F5F7F4F8F4F51
:100FE0009F4F089557FD9058440F551F59F05F3F8C
:100FF00071F04795880F97FB991F61F09F3F79F03B
:1010000087950895121613061406551FF2CF4695BC
:10101000F1DF08C0161617061806991FF1CF86953E
:101020007105610508940895E5DFA0F0BEE7B917E2
:1010300088F4BB279F3860F41616B11D672F782FF0
:101040008827985FF7CF869577956795B11D93951B
:101050009639C8F30895E894BB2766277727CB0114
:1010600097F908954ADF08F48FEF08950BD0A9CFC0
:101070009ADF28F09FDF18F0952309F062CF90CF18
:101080001124EACFAFDFA0F3959FD1F3950F50E085
:10109000551F629FF001729FBB27F00DB11D639F2A
:1010A000AA27F00DB11DAA1F649F6627B00DA11DD0
:1010B000661F829F2227B00DA11D621F739FB00D76
:1010C000A11D621F839FA00D611D221F749F3327E6
:1010D000A00D611D231F849F600D211D822F762F7F
:1010E0006A2F11249F5750408AF0E1F088234AF07C
:1010F000EE0FFF1FBB1F661F771F881F91505040C8
:10110000A9F79E3F510570F01CCFA6CF5F3FECF3CF
:10111000983EDCF3869577956795B795F795E795B3
:101120009F5FC1F7FE2B880F911D9695879597F9C4
:10113000089597FB092E07260AD077FD04D00CD01E
:1011400006D000201AF4709561957F4F0895F6F748
:10115000909581959F4F0895AA1BBB1B51E107C035
:10116000AA1FBB1FA617B70710F0A61BB70B881F37
:10117000991F5A95A9F780959095BC01CD010895C6
:04118000F894FFCF11
:1011840007E0181820044002581A981980018001B9
:1011940090099009881147E240022004181807E0DA
:1011A40007E0181820044002581A98198001800199
:1011B4008001B00D8FF1400240022004181807E0AE
:1011C40007E0181820044002581A98198001800179
:1011D4008001BFFD8001400240022004181807E08E
:1011E40007E0181820044002581A98198001800159
:1011F40080018FF1B00D400240022004181807E06E
:1012040007E0181820044002581A98198001800138
:1012140087E188119009500A40022004181807E059
:00000001FF
