:100000000C9445020C9462020C9462020C946202FD
:100010000C9462020C9462020C9462020C946202D0
:100020000C9462020C9462020C9462020C946202C0
:100030000C9462020C9462020C9462020C946202B0
:100040000C9462020C9462020C9462020C946202A0
:100050000C9462020C9462020C9462020C94620290
:100060000C9462020C9462020C9462020C94620280
:100070000C9462020C9462020C9462020C94620270
:100080000C9462020C9462020C9462020C94620260
:100090000C9462020C9462020C9462020C94620250
:1000A0000C9462020C9462020C94620205A84CCD7E
:1000B000B2D44EB93836A9020C50B9918688083CA2
:1000C000A6AAAA2ABE000000803F0000000000008F
:1000D000005F00000007000700147F147F14242A2B
:1000E0007F2A122313086462364955225000050303
:1000F0000000001C2241000041221C0014083E08A0
:100100001408083E080800503000000808080808D5
:10011000006060000020100804023E5149453E0086
:10012000427F400042615149462141454B311814FC
:10013000127F1027454545393C4A4949300171092C
:1001400005033649494936064949291E0036360015
:100150000000563600000814224100141414141430
:1001600000412214080201510906324979413E7EBC
:100170001111117E7F494949363E414141227F415B
:1001800041221C7F494949417F090909013E4149F2
:10019000497A7F0808087F00417F41002040413FA5
:1001A000017F081422417F404040407F020C027FC3
:1001B0007F0408107F3E4141413E7F090909063E08
:1001C0004151215E7F0919294646494949310101BA
:1001D0007F01013F4040403F1F2040201F3F4038EB
:1001E000403F6314081463070870080761514945CC
:1001F00043007F41410002040810200041417F007C
:10020000040201020440404040400001020400207A
:10021000545454787F484444383844444420384443
:1002200044487F3854545418087E0901020C525235
:10023000523E7F0804047800447D40002040443D45
:10024000007F1028440000417F40007C041804789F
:100250007C0804047838444444387C141414080896
:100260001414187C7C080404084854545420043F97
:100270004440203C4040207C1C2040201C3C40301E
:10028000403C44281028440C5050503C4464544C8A
:1002900044000836410000007F000000413608009D
:1002A0001008081008784641467800000000000059
:1002B000005F00000007000700147F147F14242A49
:1002C0007F2A122313086462364955225000050321
:1002D0000000001C2241000041221C0014083E08BE
:1002E0001408083E080800503000000808080808F4
:1002F000006060000020100804023E5149453E00A5
:10030000427F400042615149462141454B3118141A
:10031000127F1027454545393C4A4949300171094A
:1003200005033649494936064949291E0036360033
:10033000000056360000081422410014141414144E
:1003400000412214080201510906324979413E7EDA
:100350001111117E7F494949363E414141227F4179
:1003600041221C7F494949417F090909013E414910
:10037000497A7F0808087F00417F41002040413FC3
:10038000017F081422417F404040407F020C027FE1
:100390007F0408107F3E4141413E7F090909063E26
:1003A0004151215E7F0919294646494949310101D8
:1003B0007F01013F4040403F1F2040201F3F403809
:1003C000403F6314081463070870080761514945EA
:1003D00043007F41410002040810200041417F009A
:1003E0000402010204404040404000010204002099
:1003F000545454787F484444383844444420384462
:1004000044487F3854545418087E0901020C525253
:10041000523E7F0804047800447D40002040443D63
:10042000007F1028440000417F40007C04180478BD
:100430007C0804047838444444387C1414140808B4
:100440001414187C7C080404084854545420043FB5
:100450004440203C4040207C1C2040201C3C40303C
:10046000403C44281028440C5050503C4464544CA8
:1004700044000836410000007F00000041360800BB
:100480001008081008784641467811241FBECFEFA7
:10049000DAE0DEBFCDBF11E0A0E0B1E0E4E1F3E1DE
:1004A00002C005900D92AC31B107D9F713E0ACE171
:1004B000B1E001C01D92A431B107E1F70E94C6036B
:1004C0000C9488090C9400002F923F924F925F92F7
:1004D0006F927F928F929F92AF92BF92CF92DF9254
:1004E000EF92FF920F931F93DF93CF93CDB7DEB7B9
:1004F0006E970FB6F894DEBF0FBECDBF2D8B3E8B2F
:100500004F8B588F1E8E1D8E282F332727FD309539
:10051000432F532F298F3A8F4B8F5C8F262E3324F6
:1005200027FC3094432C532C698D7A8D8B8D9C8DB8
:100530000E94B307698B7A8B8B8B9C8B4D8D5E8D64
:10054000BA01882777FD8095982F0E94B3072BED7D
:100550003FE049E450E40E94A00820E030E044E39A
:1005600053E40E941D077B018C01C8010E941A07F9
:1005700020E030E040E251E40E94A0080E9403091C
:100580003B014C01C201B1010E94B3076D877E8718
:100590008F87988BB701C8010E94230920E030E0C3
:1005A00040E251E40E94A0080E9403095B016C0133
:1005B00069897A898B899C89A40193010E94B2067A
:1005C0000E9485077B018C016D857E858F859889CA
:1005D000A60195010E94B2060E9485079B01AC010D
:1005E0008E2D622F41E00E9412048D8D9E8D029609
:1005F0009E8F8D8F8856914009F096CF2224332408
:10060000B101882777FD8095982F0E94B3072BEDC5
:100610003FE049E450E40E94A00820E030E040E8D8
:100620005EE30E94A0085B016C012D893E894F8921
:10063000588D0E94B2067B018C01C8010E941A07E6
:1006400020E030E040E251E40E94A0080E9403094B
:100650003B014C01B701C8010E94230920E030E0B2
:1006600040E251E40E94A0080E94030969877A874A
:100670008B879C87C601B5012BED3FE049E450E430
:100680000E94B2062D893E894F89588D0E94B2067C
:100690007B018C01C8010E941A0720E030E040E293
:1006A00051E40E94A0080E9403096D837E838F831A
:1006B0009887B701C8010E94230920E030E040E29A
:1006C00051E40E94A0080E94030969837A838B8306
:1006D0009C8369897A898B899C89A40193010E94F2
:1006E000B2060E9485072B013C016D857E858F85B2
:1006F000988929853A854B855C850E94B2060E94BF
:1007000085074B015C0169897A898B899C892D81D8
:100710003E814F8158850E94B2060E9485076B0179
:100720007C016D857E858F85988929813A814B81F1
:100730005C810E94B2060E9485078B019C01842D7A
:10074000682D4C2D202F0E9445040894211C311C3B
:10075000F4E02F16310409F053CF6E960FB6F894DB
:10076000DEBF0FBECDBFCF91DF911F910F91FF90E4
:10077000EF90DF90CF90BF90AF909F908F907F9041
:100780006F905F904F903F902F900895DF92EF927F
:10079000FF920F931F9380E88093610081E0809324
:1007A00061008FE30E9430069AE0D92E0F2EF0E010
:1007B000EF2EF0E0FF2EF0E00F2FF0E01F2FF02DD6
:1007C0000E940A0480E060E040E051E00E94E605FB
:1007D00080E068E24FE051E00E94E6058D2D68E17F
:1007E000A80197010E9464020E94FC0582E0D80ED5
:1007F000C801B7012CE739ED40E25EE30E94B20682
:100800007B018C018D2D90E08A349105CCF28AE039
:10081000D82ED6CFECE1F1E0119283E0E431F80775
:10082000D9F70895843580F5603370F5262F269525
:1008300026952695677090E0442399F0E4E52E9F75
:10084000F0011124E80FF91FE45EFE4F81E090E013
:1008500002C0880F991F6A95E2F72081282B208318
:100860000895E4E52E9FF0011124E80FF91FE45EDE
:10087000FE4F81E090E002C0880F991F6A95E2F771
:10088000809520812823208308952F923F924F92B4
:100890005F926F927F928F929F92AF92BF92CF9210
:1008A000DF92EF92FF920F931F93DF93CF93CDB719
:1008B000DEB72D970FB6F894DEBF0FBECDBFD82E92
:1008C000C62E142F022F8417F9F4A62EBB24E22E75
:1008D000FF240EC08D2D6A2D41E00E941204C01627
:1008E00020F40894A11CB11C03C00894A108B1080D
:1008F000C01628F4EA14FB040CF4FEC0EBCFAE14CF
:10090000BF040CF4F9C0E6CF282F30E06017F9F4EB
:10091000C9015C01E42EFF240EC08A2D6C2D41E03C
:100920000E941204D11620F40894A11CB11C03C02B
:100930000894A108B108D11628F4EA14FB040CF4B9
:10094000DBC0EBCFAE14BF040CF4D6C0E6CF842FCF
:1009500090E09A838983C9015C0169817A81681B6F
:10096000790B882777FD8095982F0E94B3076F83B6
:10097000788789879A87202E33244C2C5524B101FF
:1009800064197509882777FD8095982F0E94B30711
:100990003B014C012F81388549855A850E941D07EE
:1009A0006B837C838D839E8320E030E040E050E0C9
:1009B0000E949C0887FF0DC0C401B30190582F818D
:1009C000388549855A850E941D076B837C838D83FA
:1009D0009E830F2EF0E0CF2EF0E0DF2EF0E0EF2E22
:1009E000F0E0FF2EF02D70C0AB868A2D642D41E023
:1009F0000E941204C701B6012B813C814D815E81AA
:100A00000E94B20631C08B85642D41E00E94120421
:100A10001D861C86C401B30120E030E040E050E0B8
:100A20000E949C08181624F4E1E0F0E0FD87EC87B2
:100A300000E010E0C401B30120E030E040E050E00D
:100A40000E941607882314F401E010E08C859D8530
:100A5000801B910B480E591EC701B60120E030E003
:100A600040E85FE30E94B1066B017C0120E030E0CA
:100A700040E05FE30E949C0888239CF0C401B3011E
:100A800020E030E040E050E00E949C0818162CF472
:100A9000241435040CF0B7CF04C0421453040CF0F6
:100AA000B2CF6F81788589859A8520E030E040E07B
:100AB00050E00E949C08181624F40894A11CB11C54
:100AC00003C00894A108B1086F81788589859A854B
:100AD00020E030E040E050E00E949C08181634F41A
:100AE000E981FA81EA15FB053CF07ECF89819A8184
:100AF000A816B9060CF078CF2D960FB6F894DEBF85
:100B00000FBECDBFCF91DF911F910F91FF90EF905E
:100B1000DF90CF90BF90AF909F908F907F906F901D
:100B20005F904F903F902F9008958F929F92AF9239
:100B3000BF92CF92DF92EF92FF920F931F93CF93CA
:100B4000DF93D82EC62E85E0489FA00111248A018C
:100B5000065D1F4F91E0892E912C8FE2A82E80E038
:100B6000B82EA40EB51E1EC06C2D6C0FA4010C2E49
:100B700002C0440F551F0A94E2F74E215F210C2E4C
:100B800002C0559547950A94E2F78D2D0E941204F4
:100B90002196C830D10541F70F5F1F4FD3940A1536
:100BA0001B0539F0C0E0D0E0F8018491E82EFF2465
:100BB000DBCFDF91CF911F910F91FF90EF90DF90EE
:100BC000CF90BF90AF909F908F9008950F931F93F9
:100BD000CF93DF93182F062FEA0106C0812F602FD5
:100BE0000E94950521961B5F48814423B9F7DF9148
:100BF000CF911F910F910895CF93DF9380E060E034
:100C00000E94A406CCE1D1E081E069910E940F0628
:100C100083E0C431D807C1F7DF91CF91089595B132
:100C20008295880F807E9F7D982B95B95F9827E0ED
:100C300030E070E08F98CB01022E02C09595879529
:100C40000A94E2F780FF02C02E9A01C02E988F9A74
:100C5000215030408FEF2F3F380761F75F9A08959A
:100C60001F93182F579A249A259A269A879A2C9878
:100C70005F9A2C9A80E061E20E940F06106880E083
:100C8000612F0E940F0680E064E00E940F0680E062
:100C900063E10E940F0680E06CE00E940F0680E096
:100CA00060E20E940F0680E06CE00E940F0680E088
:100CB00060E40E940F0680E060E80E940F061F912A
:100CC0000895CF93DF93C0E0D0E081E060E00E9420
:100CD0000F06219681E0C83FD807B9F7DF91CF9181
:100CE00008950F931F93CF93DF93082F81E060E067
:100CF0000E940F0685E0089F80011124E801C65F6D
:100D0000DD4F0B59104006551D4FFE01649181E0E7
:100D10000E940F062196C017D107B9F781E060E065
:100D20000E940F06DF91CF911F910F910895CF93ED
:100D3000DF93EC0103C00E9471062196888188230D
:100D4000D1F7DF91CF9108951F93182F606480E051
:100D50000E940F06106880E0612F0E940F061F910D
:100D600008955058BB27AA270ED09BC164D130F0FC
:100D700069D120F031F49F3F11F41EF459C10EF4F3
:100D8000E095E7FB4FC1E92FAED180F3BA176207B8
:100D900073078407950718F071F49EF5C6C10EF429
:100DA000E0950B2EBA2FA02D0B01B90190010C017B
:100DB000CA01A0011124FF27591B99F0593F50F493
:100DC000503E68F11A16F040A22F232F342F4427EB
:100DD000585FF3CF469537952795A795F0405395E3
:100DE000C9F77EF41F16BA0B620B730B840BBAF0B3
:100DF0009150A1F0FF0FBB1F661F771F881FC2F71E
:100E00000EC0BA0F621F731F841F48F48795779531
:100E10006795B795F7959E3F08F0B3CF9395880FE8
:100E200008F09927EE0F979587950895D7D008F485
:100E300081E008950FD1E39545C10CD032C102D1B4
:100E400040F0F9D030F021F45F3F19F0EBC05111C0
:100E50006DC1EEC048D198F39923C9F35523B1F37E
:100E6000951B550BBB27AA2762177307840738F019
:100E70009F5F5F4F220F331F441FAA1FA9F333D078
:100E80000E2E3AF0E0E830D091505040E695001C2C
:100E9000CAF729D0FE2F27D0660F771F881FBB1FE8
:100EA000261737074807AB07B0E809F0BB0B802DC2
:100EB000BF01FF2793585F4F2AF09E3F510568F00E
:100EC000B1C034C15F3FECF3983EDCF38695779573
:100ED0006795B795F7959F5FC9F7880F911D969510
:100EE000879597F90895E1E0660F771F881FBB1F6C
:100EF000621773078407BA0720F0621B730B840B19
:100F0000BA0BEE1F88F7E0950895F5D088F09F574B
:100F100090F0B92F9927B751A0F0D1F0660F771F45
:100F2000881F991F1AF0BA95C9F712C0B13081F025
:100F3000FCD0B1E00895F9C0672F782F8827B85FFB
:100F400039F0B93FCCF3869577956795B395D9F786
:100F50003EF490958095709561957F4F8F4F9F4F90
:100F60000895E89409C097FB3EF49095809570959C
:100F700061957F4F8F4F9F4F9923A9F0F92F96E9E5
:100F8000BB279395F695879577956795B795F1115A
:100F9000F8CFFAF4BB0F11F460FF1BC06F5F7F4FF7
:100FA0008F4F9F4F16C0882311F096E911C0772309
:100FB00021F09EE8872F762F05C0662371F096E812
:100FC000862F70E060E02AF09A95660F771F881FE1
:100FD000DAF7880F9695879597F90895990F000885
:100FE000550FAA0BE0E8FEEF16161706E807F907FB
:100FF000C0F012161306E407F50798F0621B730B96
:10100000840B950B39F40A2661F0232B242B252B16
:1010100021F408950A2609F4A140A6958FEF811DB9
:10102000811D089597F99F6780E870E060E008955A
:101030009FEF80EC089500240A94161617061806F0
:101040000906089500240A941216130614060506CC
:101050000895EECF50D0E8F3E894E0E0BB279F5727
:10106000F0F02AED3FE049EC06C0EE0FBB0F661F23
:10107000771F881F28F0B23A62077307840728F0A9
:10108000B25A620B730B840BE3959A9572F7803812
:1010900030F49A95BB0F661F771F881FD2F79048D0
:1010A000F5C0092E0394000C11F4882352F0BB0FF5
:1010B00040F4BF2B11F460FF04C06F5F7F4F8F4F70
:1010C0009F4F0895EF93E0FF06C0A2EA2AED3FE0AC
:1010D00049EC5FEB58DEE5DF0F90039401FC90587C
:1010E000ECEAF0E0DFC057FD9058440F551F59F06F
:1010F0005F3F71F04795880F97FB991F61F09F3F05
:1011000079F087950895121613061406551FF2CF2D
:101110004695F1DF08C0161617061806991FF1CF7D
:1011200086957105610508940895E894BB276627A4
:101130007727CB0197F9089551DF08F48FEF0895D1
:101140000BD0AFCF78DF28F07DDF18F0952309F0C2
:1011500069CF6ECF1124EACFC6DFA0F3959FD1F3FC
:10116000950F50E0551F629FF001729FBB27F00D55
:10117000B11D639FAA27F00DB11DAA1F649F6627AA
:10118000B00DA11D661F829F2227B00DA11D621FF9
:10119000739FB00DA11D621F839FA00D611D221FB3
:1011A000749F3327A00D611D231F849F600D211D97
:1011B000822F762F6A2F11249F5750408AF0E1F03A
:1011C00088234AF0EE0FFF1FBB1F661F771F881F83
:1011D00091505040A9F79E3F510570F023CFA6CF04
:1011E0005F3FECF3983EDCF3869577956795B7956E
:1011F000F795E7959F5FC1F7FE2B880F911D969598
:10120000879597F9089577DFE0F09E37D8F0963903
:10121000B8F49E3848F4672F782F8827985FF9CF65
:1012200086957795679593959539D0F3B62FB170DC
:101230006B0F711D811D20F48795779567959395A8
:1012400008C022C073CF9F9305DF0F9007FCEE5FAD
:1012500039CF882371F4772321F09850872B762F8C
:1012600007C0662311F499270DC09051862B70E0BA
:1012700060E02AF09A95660F771F881FDAF7880FCB
:101280009695879597F908959F3F31F0915020F4F6
:10129000879577956795B795880F911D9695879552
:1012A00097F908959F938F937F936F93FF93EF9395
:1012B0009B01AC0145DFEF91FF9105D02F913F914C
:1012C0004F915F913DCFDF93CF931F930F93FF9289
:1012D000EF92DF927B018C01689405C0DA2EEF015A
:1012E0003BDFFE01E894A5912591359145915591FB
:1012F000AEF3EF0148DDFE019701A801DA9479F71A
:10130000DF90EF90FF900F911F91CF91DF910895A3
:04131000F894FFCF7F
:1013140048656C6C6F204469636B6865616400495F
:0C132400276D206E39303133353535002F
:00000001FF
